:020000040800F2
:1000000070040020D5290008F92A0008FB2A0008FE
:10001000FF2A0008032B0008072B0008000000003F
:100020000000000000000000000000000B2B000892
:100030000D2B0008000000000F2B0008112B0008FA
:10004000EF290008EF290008EF290008EF29000830
:10005000EF290008EF290008EF290008EF29000820
:10006000EF290008EF290008EF290008EF29000810
:10007000EF290008EF290008EF290008EF29000800
:10008000EF290008EF290008EF290008EF290008F0
:10009000EF290008EF290008EF290008EF290008E0
:1000A000EF290008EF290008EF290008EF290008D0
:1000B000EF290008EF290008632B0008EF2900084A
:1000C000EF290008EF290008EF290008EF290008B0
:1000D000EF290008192B0008EF290008EF29000874
:1000E000EF290008EF290008EF290008EF29000890
:1000F000EF290008EF290008EF290008EF29000880
:10010000EF290008EF290008EF290008EF2900086F
:10011000EF290008EF290008EF290008EF2900085F
:10012000EF290008EF290008EF290008EF2900084F
:10013000DFF80CD003F050FE00480047F929000812
:10014000700400200CB50020019000906C480068FD
:1001500040F480306A49086000BF6948006800F4D4
:10016000003000900198401C0190009818B9019847
:10017000B0F5A06FF1D16248006800F4003010B112
:100180000120009001E0002000900098012843D158
:100190005C48006840F010005A4908600846006852
:1001A00020F0030008600846006840F00200086084
:1001B00053484068524948600846406848600846CD
:1001C000406840F4806048600846406820F47C1035
:1001D00048600846406840F4E810486008460068F7
:1001E00040F08070086000BF4548006800F0007073
:1001F0000028F9D04248406820F003004049486098
:100200000846406840F00200486000BF3C48406833
:1002100000F00C000828F9D10CBD10B5FFF792FFD3
:1002200010BD10B53648006840F001003449086040
:10023000084640683449084031494860084600682B
:10024000324908402E4908600846006820F48020A2
:1002500008600846406820F4FE0048604FF41F0024
:100260008860FFF7DAFF4FF000602949086010BD91
:1002700010B5002100200022214B5B6803F00C0127
:1002800021B1042906D0082928D107E0214B224CAE
:10029000236027E01F4B204C236023E0184B5B6852
:1002A00003F47010164B5B6803F48032022303EBF7
:1002B000904022B9194B4343174C23600DE0104B7B
:1002C0005B6803F4003323B1144B4343124C2360A7
:1002D00003E0104B4343104C236003E00D4B0E4CE6
:1002E000236000BF00BF064B5B68C3F303130C4CD5
:1002F000E15C094B1B68CB40074C236010BD00003C
:1003000000100240002002400000FFF8FFFFF6FE50
:1003100008ED00E000127A000000002000093D0016
:100320000400002031490143314A1160704770B523
:10033000002100230F22C47804B32D4C246804F458
:10034000E064C4F5E064210AC1F10403CA404478C2
:1003500004FA03F18478144021430901254C0678FE
:10036000A155047804F01F050124AC4005786D11F7
:10037000AD0005F1E025C5F8004109E0047804F07E
:100380001F050124AC401C4D0678761145F8264027
:1003900070BD1A4A0A400243154B1B1F1A60704772
:1003A00039B1134A121D12680243114B1B1D1A600A
:1003B00006E00F4A121D126882430D4B1B1D1A6086
:1003C0007047042808D14FF0E021096941F0040189
:1003D0004FF0E022116107E04FF0E021096921F0C0
:1003E00004014FF0E0221161704700000000FA059F
:1003F0000CED00E000E400E080E100E080FFFF1F82
:1004000010B50446FA48844208D10121401501F094
:1004100085F90021601501F081F917E0F548844263
:1004200008D10121001501F079F90021201501F012
:1004300075F90BE0F048844208D10121C80301F0AE
:100440006DF900214FF4004001F068F910BD30B59E
:100450000246002000235068E84C20400D790C68CB
:1004600044EA0524204350609068E54C2040D1E9DF
:1004700002542C434D7944EA450420439060D06AED
:1004800020F470000C7C641EE4B2234340EA035065
:10049000D06230BD00210160017141718160C16095
:1004A00001210174704721B1826842F0010282602B
:1004B00003E0826822F001028260704721B1826805
:1004C00042F48072826003E0826822F4807282606B
:1004D000704710B50023CBB21AB144681C43446086
:1004E00002E044689C43446010BD816841F008010B
:1004F00081607047014600208A6802F008020AB154
:10050000012000E000207047816841F00401816013
:100510007047014600208A6802F004020AB10120F7
:1005200000E00020704721B1826842F4A00282609E
:1005300003E0826822F4A002826070470146002036
:100540008A6802F480020AB1012000E000207047AE
:1005500010B50A4600210023416821F46041531E72
:1005600041EA4331416010BD21B1426842F400626A
:10057000426003E0426822F4006242607047F0B5D6
:1005800004460D4600200021092D11DDE068A5F18B
:100590000A0606EB4607072606FA07F18843A5F187
:1005A0000A0606EB460603FA06F10843E0600CE093
:1005B000206905EB4507072606FA07F1884305EB96
:1005C000450603FA06F108432061072A0FDA606B3B
:1005D000561E06EB86071F2606FA07F18843561EAD
:1005E00006EB860605FA06F10843606322E00D2A51
:1005F0000FDA206BD61F06EB86071F2606FA07F1D7
:100600008843D61F06EB860605FA06F108432063E9
:1006100010E0E06AA2F10D0606EB86071F2606FA37
:1006200007F18843A2F10D0606EB860605FA06F1EE
:100630000843E062F0BD21B1826842F4801282601A
:1006400003E0826822F48012826070470146C86C21
:1006500080B2704766484C300068704721B14268EC
:1006600042F48062426003E0426822F480624260A9
:10067000704721B1426842F48052426003E0426810
:1006800022F48052426070470A460021816821F4BA
:10069000E04111438160704721B1826842F4004219
:1006A000826003E0826822F400428260704721B1D8
:1006B000826842F40212826003E0826822F402122D
:1006C00082607047014600208A6802F400120AB175
:1006D000012000E000207047F0B5044615460020D8
:1006E00000220026092911DDE068A1F10A0707EBC5
:1006F000470C072707FA0CF29043A1F10A0707EB12
:10070000470703FA07F21043E0600CE0206901EBB1
:10071000410C072707FA0CF2904301EB410703FA5B
:1007200007F210432061A06BC0F30156EF1C06F1E5
:10073000010CA7EB0C0707EB870C1F2707FA0CF23D
:100740009043EF1C06F1010CA7EB0C0707EB8707A2
:1007500001FA07F21043A063F0BD10B50A4600216C
:100760000023816B21F44011531E41EA0351816340
:1007700010BD08B5002300930090009B0B4400932C
:10078000009B1A6008BD08B5024600200090009248
:1007900001F12800009B184400900098006880B286
:1007A00008BD0A4600214168164B194011434160BB
:1007B00070474162826270470A460021416821F019
:1007C0001F0111434160704740B109490831096870
:1007D00041F40001064A0832116007E0044908317B
:1007E000096821F40001024A0832116070470000D4
:1007F0000024014000280140003C0140FFFEF0FFC2
:10080000FDF7F1FFFFFD3FFF0246002013680B409C
:100810000BB1012000E000207047CA43026070471E
:1008200070B502460020002300240B125568CEB29A
:1008300005EA060415681D4015B10CB1012000E061
:10084000002070BD00220A12D343036070470000ED
:1008500001684FF6FE7211400160002101604160A5
:100860008160C1608D49884208D18C490839496846
:1008700041F00F01894A083A51608AE087491431F2
:10088000884208D185490839496841F0F001834A16
:10089000083A51607DE081492831884208D17F497A
:1008A0000839496841F470617C4A083A516070E047
:1008B0007A493C31884208D178490839496841F47D
:1008C0007041764A083A516063E074495031884279
:1008D00008D172490839496841F470216F4A083AD1
:1008E000516056E06D496431884208D16B4908393E
:1008F000496841F47001694A083A516049E0674922
:100900007831884208D165490839496841F07061F9
:10091000624A083A51603CE06149884206D1011FB1
:10092000096841F00F01021F116032E05C49143187
:10093000884208D15A49091F096841F0F001584A14
:10094000121F116025E056492831884208D15449C8
:10095000091F096841F47061514A121F116018E0C3
:100960004F493C31884208D14D49091F096841F47B
:1009700070414B4A121F11600BE0494950318842C7
:1009800007D14749091F096841F47021444A121FE1
:100990001160704710B50022026847F6F0739A4361
:1009A0000C6A8B6823430C6923434C6923438C698D
:1009B0002343CC6923434C6A23438C6A23431A4361
:1009C0000260CB6843600B6883604B68C36010BDF6
:1009D0000021016041608160C1600161416181610C
:1009E000C161016241628162704721B1026842F0D7
:1009F0000102026004E002684FF6FE731A400260D2
:100A000070471AB103680B43036002E003688B432D
:100A100003607047416070470146486880B2704784
:100A200001460020002201F080531BB11C4B083B03
:100A30001A6802E0194B083B1A6802EA01030BB17D
:100A4000012000E00020704700F0805119B11449E6
:100A5000091F086002E011490839486070470146E3
:100A60000020002201F080531BB10D4B083B1A6897
:100A700002E00A4B083B1A6802EA01030BB10120AD
:100A800000E00020704700F0805119B10449091FAF
:100A9000086002E0014908394860704708000240D8
:100AA0000804024030B943F2DB028100A1F1C041E9
:100AB0000A6005E043F2D2028100A1F1C0410A6060
:100AC0006FF07042411C8900A1F1C0410A608100B1
:100AD000A1F1C041C1F80421704710280AD11821A2
:100AE0004FF020421166402151664FF0FC31916673
:100AF000D16610E01821F74A116040214FF02042E2
:100B0000C2F884104FF0FC31F24A083211604FF005
:100B10002042C2F88C1070471820EE49203108603E
:100B200000200906C1F8A4004FF0FC30E949283143
:100B30000860091D0860091D08607047D0E90112AE
:100B40001143C2681143026911434269114382692A
:100B50001143C2691143026A1143426A1143826A16
:100B60001143C26A1143026B114302689200A2F161
:100B7000C0421160816808290BD101688900A1F188
:100B8000C041096841F0400201688900A1F1C041FB
:100B90000A60416B0968426B526841EA0211426B7C
:100BA000926841EA0221426B928941EA0241426B1A
:100BB000128A41EA0251426B127D41EA0261426BA4
:100BC000926911430268521C9200A2F1C042116066
:100BD000C16AB1F5804F1BD1816B0968826B526885
:100BE00041EA0211826B926841EA0221826B128A09
:100BF00041EA0251826B127D41EA0261826B926985
:100C0000114302689200A2F1C042C2F8041107E049
:100C10006FF0704201688900A1F1C041C1F8042160
:100C2000704730B5002100220023446844F00804D6
:100C300085682C43C5682C4305692C43456944EA03
:100C40004524856944EA4531C4692468C5696D68ED
:100C500044EA0524C5692D8944EA0544C5692D7B0C
:100C600044EA0562046A2468056A6D6844EA05245A
:100C7000056A2D8944EA0544056A2D7B44EA05632B
:100C80000468102C05D14FF020442166A266E3666B
:100C900008E0904C21604FF02044C4F888208D4C2F
:100CA0000C34236030BD016841F01001426841EA14
:100CB0004221826841EA4231864A20321160C1688D
:100CC0000968C268526841EA0221C268128941EA91
:100CD0000241C268127B41EA02617E4A28321160F9
:100CE000016909680269526841EA022102691289B0
:100CF00041EA02410269127B41EA0261754A2C32E3
:100D00001160416909684269526841EA02214269F9
:100D1000128941EA02414269127B41EA02614FF0C5
:100D20002042C2F8B01070470021016002214160EA
:100D300000218160C160016141618161C161016225
:100D40004FF480514162490081620021C162016318
:100D50000F21426B1160426B5160FF21426B916029
:100D60000F21426BD160426B1161426B51610021D6
:100D7000426B91610F21826B1160826B5160FF2188
:100D8000826B91600F21826BD160826B1161826BEB
:100D900051610021826B9161704710210160002137
:100DA00041608160C160016141618161FC21C26972
:100DB0001160C2695160C2699160C269D160026A02
:100DC0001160026A5160026A9160026AD1607047E4
:100DD0000021016041608160FC21C2681160C2682D
:100DE0005160C2689160C268D16002691160026995
:100DF0005160026991600269D16042691160426983
:100E00005160426991604269D160704751B182007E
:100E1000A2F1C042126842F001038200A2F1C04276
:100E2000136009E08200A2F1C04212682A4B1A4006
:100E30008300A3F1C0431A60704799B1102808D10C
:100E40004FF02042126E42F004024FF020431A6627
:100E50001DE0204A126842F004024FF02043C3F81C
:100E6000802014E0102809D14FF02042126E1A4B56
:100E7000DB1E1A404FF020431A6608E0154A12683C
:100E8000154BDB1E1A404FF02043C3F880207047FB
:100E900048B110492031096841F004014FF0204267
:100EA000C2F8A01009E00B49203109680A4AD21E95
:100EB00011404FF02042C2F8A0107047B9B110287D
:100EC0000CD14FF02042126E42F040024FF020430E
:100ED0001A661FE0800000A0FEFF0F00724A126831
:100EE00042F040024FF02043C3F8802012E0102867
:100EF00008D14FF02042126E6C4B1A404FF0204345
:100F00001A6607E0684A1268684B1A404FF020439F
:100F1000C3F88020704701460020102903D14FF00C
:100F20002042506F02E0604A14321068704710B5DA
:100F3000F2B1102807D14FF020435B6E0B434FF006
:100F40002044636632E0B0F5807F08D1564B1B1D0C
:100F50001B680B434FF02044C4F8843026E0524B0A
:100F600024331B680B434FF02044C4F8A4301DE029
:100F7000102807D14FF020435B6E8B434FF0204485
:100F8000636613E0B0F5807F08D1474B1B1D1B68DB
:100F90008B434FF02044C4F8843007E0424B2433A5
:100FA0001B688B434FF02044C4F8A43010BD10B52B
:100FB000024600200023102A03D14FF02044636E24
:100FC00009E0B2F5807F03D1374C241D236802E08D
:100FD000354C2434236803EA01040CB1012000E0FD
:100FE000002010BD102807D14FF02042526E8A43D6
:100FF0004FF020435A6613E0B0F5807F08D12A4AAB
:10100000121D12688A434FF02043C3F8842007E082
:10101000254A243212688A434FF02043C3F8A420A3
:10102000704770B502460020002300240025102AD6
:1010300003D14FF02046736E09E0B2F5807F03D1F3
:10104000194E361D336802E0174E2436336803EA22
:10105000010403EAD10514B10DB1012000E0002024
:1010600070BD102808D14FF02042526E22EAD10202
:101070004FF020435A6615E0B0F5807F09D10A4A47
:10108000121D126822EAD1024FF02043C3F88420D7
:1010900008E0054A2432126822EAD1024FF02043C8
:1010A000C3F8A42070470000800000A0BFFF0F001D
:1010B00010B50446CC48844208D10121042000F038
:1010C0002DFB0021042000F029FB46E0C7488442A4
:1010D00008D10121082000F021FB0021082000F0A8
:1010E0001DFB3AE0C248844208D10121102000F0E3
:1010F00015FB0021102000F011FB2EE0BD488442BA
:1011000008D10121202000F009FB0021202000F05F
:1011100005FB22E0B848844208D10121402000F0BC
:10112000FDFA0021402000F0F9FA16E0B3488442AD
:1011300008D10121802000F0F1FA0021802000F088
:10114000EDFA0AE0AE48844207D10121801500F093
:10115000E5FA0021A01500F0E1FA10BD10B501215B
:10116000084600F0DBFA0021012000F0D7FA10BD9C
:101170002DE9F0410246002500260020002300242E
:10118000002791F803C00CF00F0591F803C00CF094
:10119000100CBCF1000F03D091F802C04CEA050519
:1011A00091F800C0BCF1000F31D0146800202BE092
:1011B0004FF0010C0CFA00F3B1F800C00CEA030682
:1011C0009E4220D183004FF00F0C0CFA03F7BC4372
:1011D00005FA03FC4CEA040491F803C0BCF1280FA3
:1011E00006D14FF0010C0CFA00FCC2F814C00AE062
:1011F00091F803C0BCF1480F05D14FF0010C0CFA77
:1012000000FCC2F810C0401C0828D1D31460B1F80B
:1012100000C0BCF1FF0F34DD546800202EE000F167
:10122000080C4FF0010808FA0CF3B1F800C00CEA02
:1012300003069E4221D183004FF00F0C0CFA03F7F6
:10124000BC4305FA03FC4CEA040491F803C0BCF16A
:10125000280F05D100F1080C08FA0CF8C2F8148028
:1012600091F803C0BCF1480F07D100F1080C4FF012
:10127000010808FA0CF8C2F81080401C0828CED3E8
:101280005460BDE8F0814FF6FF710180022181704A
:101290000421C17070470246002093680B400BB1D7
:1012A000012000E0002070470146886880B2704746
:1012B00002460020D3680B400BB1012000E0002063
:1012C00070470146C86880B270470161704741614C
:1012D00070470AB1016100E041617047C160704729
:1012E0004FF480320A43826181618261826982693E
:1012F000704702460020434B18684FF68073184031
:1013000040EA021008433F4B186070473E49C861ED
:101310007047F0B50A46002300240021002500F0A4
:101320000046B6F1004F02D1364EF16901E0354E6C
:101330007168C0F3034583B200F44016B6F5401F50
:1013400008D121F070612F4E766826F070662D4F1F
:101350007E6012E000F48016B6F5801F06D10326E9
:1013600006FA05F4A14341F0706106E0460D36012E
:1013700003FA06F6B14341F0706122B1460D360121
:1013800003FA06F6314300F00046B6F1004F02D1F1
:101390001C4EF16101E01B4E7160F0BD30B50022C2
:1013A0008B071C0F0F2303FA04F2164B08338C1023
:1013B00053F824309343134C08348D1044F82530EF
:1013C00023468C1053F824308C07240F00FA04F4C1
:1013D00023430C4C08348D1044F8253030BD0A49A5
:1013E000DC3108607047000000080140000C01403B
:1013F000001001400014014000180140001C014091
:10140000002001400000014000002042DF48006849
:1014100040F00100DD49086008464068DC490840AA
:10142000DA49486008460068DA490840D749086048
:101430000846006820F4802008600846406820F4D0
:10144000FE0048604FF41F0088607047CF4909686C
:1014500021F48031CD4A11601146096821F48021C0
:101460001160B0F5803F03D0B0F5802F0ED106E0BB
:10147000C649096841F48031C44A116007E0C34994
:10148000096841F4A021C14A116000E000BF00BF1B
:10149000704710B501460022002300204A11012A9E
:1014A00002D1BA4C236806E0022A02D1B74C236A63
:1014B00001E0B64C636A01F01F02012494401C4015
:1014C0000CB1012000E0002010BD38B500200090D4
:1014D0000024002500BF3120FFF7DBFF0546009800
:1014E000401C00900098B0F5A06F01D0002DF2D004
:1014F0003120FFF7CEFF08B1012400E00024204690
:1015000038BD01460020A14A106820F0F80040EAEA
:10151000C10010607047A049086070470246002073
:101520009A4B586820F47C1042EA01031843974B09
:101530005860704798490866704701460020934AF2
:10154000506820F003000843506070478F4840689F
:1015500000F00C007047014600208C4A506820F0D3
:10156000F00008435060704701460020874A5068E9
:1015700020F4E06008435060704701460020834A31
:10158000506820F4605040EAC1005060704729B1B3
:101590007E4A527A02437D4B5A7204E07B4A527A69
:1015A00082437A4B5A7270477B49D8310860704742
:1015B00001460020754A506820F4404008435060BE
:1015C00070470021714A20321170704A82F8201051
:1015D000012802D004280AD104E001216B4A2032FC
:1015E000117005E00521694A2032117000E000BF4A
:1015F00000BF70476949086070476449096A014340
:10160000624A11627047654944390860704730B5D5
:1016100000210022002400235C4D6D6805F00C01C0
:1016200021B1042905D0082923D105E05C4D0560CE
:1016300022E05B4D05601FE0544D6D6805F47012AB
:10164000524D6D6805F48034022505EB92421CB9B9
:10165000544D554305600BE04C4D6D6805F4003565
:101660001DB1504D5543056002E04D4D5543056099
:1016700002E04B4D056000BF00BF444D6D6805F0B2
:10168000F0010909484D6B5C0568DD4045603F4D40
:101690006D6805F4E061090A434D6B5C4568DD4007
:1016A00085603A4D6D6805F46051C90A3E4D6B5C2A
:1016B0004568DD40C560354D6D6805F44041890BD6
:1016C0003A4D6B5CC568B5FBF3F5056130BD29B1DA
:1016D0002E4A526902432D4B5A6104E02B4A52694B
:1016E00082432A4B5A61704729B1284A92690243C2
:1016F000264B9A6104E0254A92698243234B9A6102
:10170000704729B1214AD2690243204BDA6104E0D3
:101710001E4AD26982431D4BDA61704729B11B4AC8
:10172000D2680243194BDA6004E0184AD268824357
:10173000164BDA60704729B1144A12690243134B01
:101740001A6104E0114A12698243104B1A61704712
:1017500012494039086070470F49C86470470B4907
:10176000C87170470948406A40F080700749486274
:10177000704701460020054A92680A400AB10120DC
:1017800000E0002070470149887270470010024055
:101790000000FFF8FFFFF6FE0000424280044242D4
:1017A00000127A0000093D001400002024000020EF
:1017B00010B50446FE48844208D10121C014FFF749
:1017C000ADFF0021E014FFF7A9FFC4E0B4F1804FA2
:1017D00008D101210846FFF7AEFF00210120FFF7E5
:1017E000AAFFB8E0F348844208D101210220FFF7A4
:1017F000A2FF00210220FFF79EFFACE0EE488442EA
:1018000008D101210420FFF796FF00210420FFF7F3
:1018100092FFA0E0E948844208D101210820FFF7A7
:101820008AFF00210820FFF786FF94E0E448844205
:1018300008D101211020FFF77EFF00211020FFF7C3
:101840007AFF88E0DF48844208D101212020FFF799
:1018500072FF00212020FFF76EFF7CE0DA4884420F
:1018600008D101214014FFF759FF00216014FFF750
:1018700055FF70E0D548844209D10121C804FFF723
:101880004DFF00214FF40020FFF748FF63E0D048F0
:10189000844209D101210805FFF740FF00214FF4E0
:1018A0008010FFF73BFF56E0CA48844209D101216E
:1018B0004805FFF733FF00214FF40010FFF72EFF1C
:1018C00049E0C548844208D101214020FFF733FF99
:1018D00000214020FFF72FFF3DE0C048844208D19F
:1018E00001218020FFF727FF00218020FFF723FF41
:1018F00031E0BB48844208D101218015FFF71BFF6E
:101900000021A015FFF717FF25E0B648844209D152
:1019100001210804FFF702FF00214FF48030FFF798
:10192000FDFE18E0B048844209D101214804FFF7C8
:10193000F5FE00214FF40030FFF7F0FE0BE0AB485E
:10194000844208D101218804FFF7E8FE00214FF40A
:101950008020FFF7E3FE10BD00220288944B9842DE
:101960000ED0994B98420BD0B0F1804F08D0914BDC
:10197000984205D0904B984202D0904B984204D1A7
:101980004FF68F731A404B881A438D4B984207D0FD
:101990008C4B984204D04FF6FF431A40CB881A4331
:1019A00002808B8883850B880385814B98420BD0FE
:1019B000854B984208D08B4B984205D08A4B984271
:1019C00002D08A4B984201D10B7A0386012383828D
:1019D000704770B5002400220023058C4FF6FE7678
:1019E00035400584028C8388048B4FF68F752C401C
:1019F000B51E2C400D882C43751E2A400D892A43A4
:101A00004D882A436A4DA8420BD06F4DA84208D09A
:101A1000744DA84205D0744DA84202D0734DA8421F
:101A200013D14FF6F7752A404D892A434FF6FB75BF
:101A30002A408D882A434FF6FF652B404FF6FF550D
:101A40002B408D892B43CD892B4383800483CD8804
:101A50008586028470BD70B5002400220023058CA9
:101A60004FF6EF7635400584028C8388048B48F668
:101A7000FF752C404FF6FF452C400D884FF6FF7642
:101A800006EA05252C434FF6DF752A400D8906EA44
:101A900005152A434D8806EA05152A43444DA842F8
:101AA00002D0494DA8421DD14FF67F752A404D897D
:101AB0004FF6FF7606EA05152A434FF6BF752A4012
:101AC0008D8806EA05152A434FF6FF352B404FF265
:101AD000FF752B408D8906EA85052B43CD8906EAE3
:101AE00085052B4383800483CD880587028470BDE0
:101AF00070B5002400220023058C4FF6FF663540A8
:101B00000584028C8388848B4FF68F752C404FF6AA
:101B1000FC752C400D882C434FF6FF552A400D894B
:101B20004FF6FF7606EA05252A434D8806EA052585
:101B30002A431F4DA84202D0234DA8421DD14FF287
:101B4000FF752A404D894FF6FF7606EA05252A43A0
:101B50004FF6FF352A408D8806EA05252A434EF6C2
:101B6000FF752B404DF6FF752B408D8906EA051554
:101B70002B43CD8906EA05152B4383808483CD88CA
:101B80008587028470BD70B5002200230024058C77
:101B90004EF6FF7635400584038C8488828B48F6A8
:101BA000FF752A404FF6FF452A400D8820E00000CF
:101BB000002C01400004004000080040000C0040E0
:101BC000001000400014004000340140004C01406F
:101BD000005001400054014000180040001C00402B
:101BE0000020004000400140004401400048014006
:101BF0004FF6FF7606EA05252A434DF6FF752B4082
:101C00000D8906EA05352B434D8806EA05352B4339
:101C1000FA4DA84202D0FA4DA84208D14BF6FF7502
:101C20002C408D894FF6FF7606EA85152C4384807B
:101C30008283CD88A0F84050038470BD828B4FF220
:101C4000FF331A408283828B4FF6FF7303EA01232E
:101C50001A4382837047F0B50C46154600220021D6
:101C60000026078C4EF6FF7C07EA0C070784828B60
:101C7000018C4FF6FF7707EA043640F6FF473A40FB
:101C80004FF6FF7707EA05273A434FF6FF7707EA53
:101C900003373A43D94FB8420ED0D94FB8420BD090
:101CA000B0F1804F08D0D74FB84205D0D64FB842D8
:101CB00002D0D64FB84206D14DF6FF77394046F4F0
:101CC0008057394305E047F6FF57394044F48057C1
:101CD000394382830184F0BD828B4FF6F3731A403F
:101CE0008283828B0A4382837047F0B50C46154687
:101CF000002200210026078C4FF6FF6C07EA0C0734
:101D00000784828B018C4FF6FF7707EA04264FF693
:101D10000C773A404FF6FF7707EA03172F433A4311
:101D2000B64FB8420ED0B64FB8420BD0B0F1804F8C
:101D300008D0B44FB84205D0B34FB84202D0B34F29
:101D4000B84206D14FF6FF57394046F48077394301
:101D500005E04FF2FF57394044F4807739438283DE
:101D60000184F0BD028B4FF2FF331A400283028BD5
:101D70004FF6FF7303EA01231A4302837047F0B55D
:101D80000C461546002200210026078C4FF6EF7CFA
:101D900007EA0C070784028B018C4FF6FF7707EAEE
:101DA000041640F6FF473A404FF6FF7707EA03373D
:101DB0003A434FF6FF7707EA05273A438F4FB84279
:101DC0000ED08F4FB8420BD0B0F1804F08D08D4F5E
:101DD000B84205D08C4FB84202D08C4FB84206D1E1
:101DE0004FF6DF77394046F01007394305E04FF6EC
:101DF0005F77394044F01007394302830184F0BD16
:101E0000028B4FF6F3731A400283028B0A4302835C
:101E10007047F0B50C46154600220021068C4FF69F
:101E2000FE773E400684028B018C4FF60C763240E2
:101E30007E1C06EA03162E433243704EB0420ED08B
:101E40006F4EB0420BD0B0F1804F08D06D4EB04213
:101E500005D06D4EB04202D06C4EB04206D14FF666
:101E6000FD76314044F00106314305E04FF6F5764A
:101E7000314044F00106314302830184F0BD70B566
:101E800005460C465D4885420ED05D4885420BD024
:101E9000B5F1804F08D05B48854205D05A4885424D
:101EA00002D05A48854200D100E000BF208850B9D6
:101EB0002389A28861882846FFF7ABFFE18828467E
:101EC000FFF79EFF25E0208804280AD12389A288F5
:101ED00061882846FFF753FFE1882846FFF742FF55
:101EE00017E0208808280AD12389A288618828461B
:101EF000FFF7FBFEE1882846FFF7EEFE09E02389A5
:101F0000A28861882846FFF7A6FEE1882846FFF7E9
:101F100095FE70BD2DE9F04105460C4600260127CF
:101F2000608808B9022600E00026A088012801D1B7
:101F3000022700E001272088A0B92389A2886188B0
:101F40002846FFF766FFE1882846FFF759FF2389F7
:101F50003A4631462846FFF712FFE1882846FFF748
:101F600001FF13E02389A28861882846FFF707FF55
:101F7000E1882846FFF7F6FE23893A46314628468F
:101F8000FFF747FFE1882846FFF73AFFBDE8F081F9
:101F90000A884B881A438B881A43CB881A430B89CB
:101FA0001A434B891A438B891A43A0F8442070477F
:101FB0004FF6FF71818000210180C1804180017254
:101FC00070470021018041808180C1800181418171
:101FD0008181C18170470021018041800121818080
:101FE0000021C180018170470021018041808180F2
:101FF000C18001814181818170470000002C014036
:10200000003401400004004000080040000C004083
:1020100021B1028842F00102028004E002884FF6FA
:10202000FE731A400280704731B1B0F8442042F488
:102030000042A0F8442005E0B0F84420C2F30E02AC
:10204000A0F8442070471AB183890B43838102E0D2
:1020500083898B43838170478182704741EA020301
:10206000A0F8483070471AB183890B43838102E09E
:1020700083898B438381704701894FF6F872114041
:10208000018170470A46002101894FF68F7319407C
:1020900011430181704730B504460D46294620465C
:1020A000FFF7F0FF208940F00700208130BD2DE9C7
:1020B000F04104460D4616461F46602D06D13B46AC
:1020C000012231462046FFF75AFE05E03B46012239
:1020D00031462046FFF79DFE29462046FFF7D2FFF6
:1020E000208940F007002081BDE8F08130B50C4622
:1020F00000210189C9B24FF6FF7505EA0325154392
:1021000025432943018130BD2DE9F04105460E46A6
:1021100017469846002443463A4631462846FFF77C
:10212000E5FF2C894FF6F870044044F007044FF6A1
:102130008F70044044F070042C81BDE8F081F0B54C
:1021400004460D4616461F463B4632462946204663
:10215000FFF7CCFF208940F480402081F0BD01854D
:10216000828270470A46002101884FF68F7319401A
:10217000114301807047F0B50C4615461E460021FC
:10218000002200230189028B038C4FF6F877394037
:1021900021434FF6FC473A4040F201173A434FF6CD
:1021A000DD773B404FF6FF7707EA06172F433B43A7
:1021B000018102830384F0BD0A460021018B4FF6A2
:1021C0008F7319401143018370470A460021018B28
:1021D00048F6FF7319404FF6FF7303EA02231943D1
:1021E000018370470A460021818B4FF68F73194097
:1021F0001143818370470A460021818B48F6FF73A3
:1022000019404FF6FF7303EA022319438183704795
:1022100021B1028842F08002028004E002884FF679
:102220007F731A400280704721B1828842F0040215
:10223000828004E082884FF6FB731A4082807047E8
:1022400021B1828842F00802828004E082884FF641
:10225000F7731A408280704721B1828842F00102F0
:10226000828004E082884FF6FE731A4082807047B5
:102270000A460021018B4FF6F77319401143018381
:1022800070470A460021018B4FF2FF7319404FF649
:10229000FF7303EA02231943018370470A460021B2
:1022A000818B4FF6F77319401143818370470A46BB
:1022B0000021818B4FF2FF7319404FF6FF7303EA41
:1022C00002231943818370470A460021018B4FF690
:1022D000FB7319401143018370470A460021018BAB
:1022E0004FF6FF3319404FF6FF7303EA02231943F9
:1022F000018370470A460021818B4FF6FB7319401A
:102300001143818370470A460021818B4FF6FF33CA
:1023100019404FF6FF7303EA022319438183704784
:102320000A460021018B4FF67F7319401143018348
:1023300070470A460021018BC1F30E014FF6FF736F
:1023400003EA02231943018370470A460021818B67
:102350004FF67F7319401143818370470A4600216D
:10236000818BC1F30E014FF6FF7303EA0223194379
:10237000818370470A460021018C4FF6FD73194096
:102380001143018470470A460021018C4FF6F77310
:1023900019401143018470470A460021018C4FF611
:1023A000DF7319404FF6FF7303EA021319430184E8
:1023B00070470A460021018C4FF67F7319404FF693
:1023C000FF7303EA02131943018470470A46002190
:1023D000018C4FF6FF5319404FF6FF7303EA0223B7
:1023E0001943018470470A460021018C4FF2FF73A4
:1023F00019404FF6FF7303EA022319430184704723
:102400000A460021018C4DF6FF7319404FF6FF7309
:1024100003EA023319430184704730B500230124D5
:102420008C40A3B2048C9C430484048C02FA01F512
:10243000ADB22C43048430BD30B5002304248C405D
:10244000A3B2048C9C430484048C02FA01F5ADB25F
:102450002C43048430BD70B5034600200024184688
:10246000183001258D40ACB21D8CA5431D8409B1E7
:10247000082909D100EB6100056825F070050560A9
:102480000568154305600EE00D1FC5F34E05284491
:10249000056825F4E045056005684FF6FF7606EA15
:1024A00002263543056070BD21B1028842F0020268
:1024B000028004E002884FF6FD731A4002807047E4
:1024C00021B1028842F00402028004E002884FF643
:1024D000FB731A400280704721B1828842F080026B
:1024E000828004E082884FF67F731A4082807047B2
:1024F00002884FF6F7731A40028002880A4302806E
:10250000704782884FF68F731A40828082880A4310
:102510008280704702894FF6F8731A40028102895F
:102520000A430281704702894FF67F731A40028185
:1025300002890A4302817047818470478185704710
:10254000818670470187704781877047A0F84010E7
:10255000704702884FF6FF431A40028002880A4300
:10256000028070470146888E70470146088F704789
:102570000146888F70470146B1F840007047014618
:10258000888C70470146088D704702460020138AE8
:102590000B400BB1012000E000207047CA430282CB
:1025A000704730B50246002000230024158A05EA52
:1025B0000103958905EA010413B10CB1012000E083
:1025C000002030BDCA4302827047000010B50446A7
:1025D000FB48844209D101218803FFF79FF80021BD
:1025E0004FF48040FFF79AF832E0F648844209D170
:1025F00001214804FFF79FF800214FF40030FFF756
:102600009AF825E0F048844209D101218804FFF7B7
:1026100092F800214FF48020FFF78DF818E0EB4886
:10262000844209D10121C804FFF785F800214FF445
:102630000020FFF780F80BE0E548844208D1012133
:102640000805FFF778F800214FF48010FFF773F8C2
:1026500010BD2DE9F04786B005460E460024A2467F
:1026600000BFA1460027B08900B100BF2F462C8AC9
:102670004CF6FF700440F08804432C82AC894EF67F
:10268000F3100440B088318908437189084304433A
:10269000AC81AC8A4FF6FF400440B0890443AC8261
:1026A00001A8FEF7B4FFC648874202D1DDF810A0AA
:1026B00001E0DDF80CA0A88900F4004040B10AEB6D
:1026C000CA0000EB0A1031684900B0FBF1F807E0DE
:1026D0000AEBCA0000EB0A1031688900B0FBF1F880
:1026E0006420B8FBF0F004012009642101FB10898B
:1026F000A88900F4004040B1322000EBC900B0FBD3
:10270000F1F000F00700044308E0322000EB09106C
:102710006421B0FBF1F000F00F0004432C8106B0FF
:10272000BDE8F0874FF41651016000218180C1801F
:1027300001810C21418100218181704710B5024641
:102740000020108A4FF2FF0318400B884C88234367
:102750008C882343CC8823431843108210BD00216A
:10276000018041808180C180704721B1828942F41B
:102770000052828104E082894DF6FF731A40828103
:102780007047F0B50346002400260025002040F6DF
:102790006A17B94200D100BF1846C1F3421401F0D4
:1027A0001F06012707FA06F5012C01D10C3004E0C1
:1027B000022C01D1103000E014301AB107682F4309
:1027C000076002E00768AF430760F0BD1AB1838A73
:1027D0000B43838202E0838A8B4383827047028AA1
:1027E0004FF6F0731A400282028A0A43028270474F
:1027F00082894FF2FF731A40828182890A43828163
:10280000704721B1828942F00202828104E082890C
:102810004FF6FD731A4082817047028A4FF6DF73CC
:102820001A400282028A0A430282704721B1028A58
:1028300042F48042028204E0028A4BF6FF731A409F
:1028400002827047C1F3080282807047014688887F
:10285000C0F308007047818941F001018181704710
:10286000028BD2B20283028B42EA012202837047BA
:10287000028B02F47F420283028B0A430283704779
:1028800021B1828A42F02002828204E0828A4FF6DD
:10289000DF731A408282704721B1828A42F01002AF
:1028A000828204E0828A4FF6EF731A408282704778
:1028B00021B1828A42F00802828204E0828A4FF6C5
:1028C000F7731A408282704721B1828942F4004234
:1028D000828103E08289C2F30E028281704721B1B6
:1028E000828A42F40062828204E0828A4FF2FF739D
:1028F0001A4082827047828A4FF6FB731A408282A6
:10290000828A0A438282704721B1828A42F002029F
:10291000828204E0828A4FF6FD731A4082827047F9
:1029200002460020B1F5007F00D100BF13880B40A4
:102930000BB1012000E00020704701F40072B2F5F5
:10294000007F00D100BFCA430280704770B50246C5
:10295000002400230025002040F66A16B14200D171
:1029600000BFC1F3421501F01F03012606FA03F36D
:10297000012D02D19689334006E0022D02D1168A3C
:10298000334001E0968A33400C12012606FA04F423
:102990001688344013B10CB1012000E0002070BD56
:1029A00010B50022002340F66A14A14200D100BFF6
:1029B0000A1201249440A3B2DC43048010BD00003D
:1029C000003801400044004000480040004C0040F6
:1029D000005000400648804706480047FEE7FEE7F3
:1029E000FEE7FEE7FEE7FEE7FEE7FEE7FEE7FEE7BF
:1029F000230200083101000808B500F097F900F043
:102A000079FC00F0DDF900F057FF00F047FF4FF6CA
:102A1000FF704FF4A073F02200210090084600F0F0
:102A200073FC50E02848008801F004F981464FF01B
:102A30008B4101F04FF8044601F001F907464FF0D1
:102A40006632224B01F084F8054601F00BF920496B
:102A500008604FF6FF703C237822642100901046F6
:102A600000F052FC00231BA264213C2000F03DFD3D
:102A700000231AA278213C2000F037FD002319A280
:102A8000A0213C2000F031FD00231748026864219A
:102A9000782000F048FD0023144802687821084699
:102AA00000F041FD0023124802688C21782000F0DC
:102AB0003AFD00230F480268A021782000F089FD2C
:102AC000FA2000F061F9ADE76C00002066660A406C
:102AD00028000020467265715F553A0046726571A4
:102AE0005F493A0050463A004C0000205000002058
:102AF0005400002058000020704700BFFEE700BFD0
:102B0000FEE700BFFEE700BFFEE770477047704773
:102B100010B500F043F910BD10B540F225517048D2
:102B2000FFF714FFE0B16E48FFF790FE6D490870A3
:102B3000084600786C496D4A127888546B480078D2
:102B4000401C6A49087008460078082808D100220D
:102B500040F225516248FFF714FE012064490870D5
:102B600010BD70B502216348FFF71BFD01283ED15F
:102B700002216048FFF726FD5F48008840B95D48A4
:102B8000343000885D49088001205B4908802EE0D0
:102B90005948008801282AD15648343000885849BD
:102BA00008800846008855490988884207DD54484E
:102BB000008852490988401A5249086009E04F4884
:102BC00000884FF6FF71081A4D49098808444D499D
:102BD00008604D4800686421B0FBF1F0494909687C
:102BE000B0FBF1F049490860002043490880042106
:102BF0004048FFF7D6FC01283ED104213D48FFF7AD
:102C0000E1FC4348008840B93A48383000884149DF
:102C1000088001203E4908802EE03D4800880128B8
:102C20002AD13448383000883B490880084600885B
:102C300038490988884207DD3748008835490988BE
:102C4000401A3649086009E0324800884FF6FF71A3
:102C5000081A314909880844304908602A48006840
:102C60006421B0FBF1F02D490968B0FBF1F02C496B
:102C70000860002026490880264800881F490988E6
:102C8000884207DD234800881C490988401A2549E5
:102C9000086006E0194800881E490988401A214941
:102CA0000860204800681D490968B0FBF1F201FB8B
:102CB00012001C4908601948006800F0BBFF054677
:102CC0001848006800F0B6FF0646294600F002FFEB
:102CD00004464FF07E5100F0C8FE1349086070BDF5
:102CE000003801402E000020600000206800002015
:102CF000690000200008004038000020300000205B
:102D0000320000203C000020000000204C00002089
:102D10003A0000203400002036000020400000204F
:102D200050000020540000205800002030B52048FA
:102D300000684FF47A72B0FBF2F1B1F1807F01D3F9
:102D400001201DE021F07F40401E4FF0E022506145
:102D500050170F22002807DA13071D0E154B00F03D
:102D60000F04241F1D5503E013071C0E124B1C54A7
:102D700000BF00204FF0E02290610720106100208A
:102D800008B100BFFEE730BD01B50C4900980860EE
:102D900000BF0A4800680028FBD108BD074800684A
:102DA00020B106480068401E0449086070470000D2
:102DB0000000002018ED00E000E400E05C000020CE
:102DC00000B587B0012144F20400FEF78DFC4FF4FA
:102DD0008060ADF8180004208DF81B0006A96A4831
:102DE000FEF7C6F94FF40070ADF8180003208DF817
:102DF0001A0018208DF81B0006A96348FEF7B8F9E1
:102E00004FF4E13001900020ADF80800ADF80A0061
:102E1000ADF80C00ADF810000C20ADF80E0001A9C3
:102E20005A48FFF716FC012240F225515748FFF798
:102E3000A8FC01215548FFF798FC4FF4E060FDF72E
:102E400071FA25208DF8140000208DF815008DF8FA
:102E5000160001208DF8170005A8FDF768FA07B0E5
:102E600000BD70B504460D46E1B24848FFF7EAFCE4
:102E700000BF40214548FFF753FD0028F9D0204608
:102E800070BD10B500244248007808B9012010BD7B
:102E900000240CE03F490A5D04EB4401490001F1C4
:102EA00064000023C82100F0E9FA601CC4B2082CB9
:102EB000F0DB002434E0082C2FD2DFE804F0040B10
:102EC0001219211A22233348005D532801D0022011
:102ED000DDE722E02F48005D452801D00220D6E73B
:102EE0001BE02C48005D542801D00220CFE714E0FD
:102EF00000BF2848005D3A2801D00220C7E70CE057
:102F000000BF00BF2348005D302803DB2148005D7F
:102F1000392801DD0220BAE700BF00BF601CC4B23F
:102F2000082CC8DB1B48007930381B490870194849
:102F3000C079303817498979303901EB810100EBCC
:102F400041001649087014480078012803DB124834
:102F50000078022801DD032099E710480078022854
:102F600003DB0E4800780A2801DD04208FE70020EB
:102F70000B49087006490870012240F225510348A8
:102F8000FFF7FFFB002082E7000801400038014006
:102F900069000020600000206A0000206B00002013
:102FA0006800002001B502E00098401E00900098E3
:102FB0000028F9D108BD08B501210802FEF787FBFA
:102FC00001214FF4F470FEF78FFB10208DF8030001
:102FD00003208DF802000220ADF800006946FE488B
:102FE000FEF7C6F84FF40060ADF800006946FB48F4
:102FF000FEF7BEF803208DF8020018208DF80300BC
:103000004CF20370ADF800006946F548FEF7B0F8E1
:103010004FF68070ADF800006946F248FEF7A8F858
:103020001020ADF800006946ED48FEF7A1F8202019
:10303000ADF800006946EA48FEF79AF84FF4805070
:10304000ADF800006946E548FEF792F80420ADF8B7
:1030500000006946E348FEF78BF80221DE48FEF7E0
:1030600036F908BD00B597B002200190002002900B
:103070000520039000200490059006904FF08050AA
:103080000790062008900020099008200A90102040
:103090000B9000200C900E900F9010904FF48050E9
:1030A0001190002012901390149001A81590169082
:1030B00008A8FDF743FD01210620FDF7A7FE17B084
:1030C00000BD10B54FF40061C448FEF700F9C648D2
:1030D000FFF768FF4FF40061C048FEF7F6F8C248FA
:1030E000FFF760FF10BD00B5CF204FF0D84108803A
:1030F00000204FF0DA4108808120088030200880CD
:10310000ED204FF0D841088064204FF0DA4108806C
:10311000032008801220088081200880E8204FF0DA
:10312000D841088085204FF0DA41088010200880BF
:1031300078200880CB204FF0D841088039204FF00C
:10314000DA4108802C200880002008803420088084
:1031500002200880F7204FF0D841088020204FF04F
:10316000DA410880EA204FF0D841088000204FF073
:10317000DA4108800880B1204FF0D8410880002053
:103180004FF0DA4108801B200880B62041060880F5
:103190000A204FF0DA410880A2200880C0204FF0BA
:1031A000D841088035204FF0DA410880C1204FF027
:1031B000D841088011204FF0DA410880C5204FF037
:1031C000D841088045204FF0DA4108800880C720A8
:1031D0004FF0D8410880A2204FF0DA410880F22059
:1031E0004FF0D841088000204FF0DA4108802620B7
:1031F0004FF0D841088001204FF0DA410880E020EC
:103200004FF0D84108800F204FF0DA410880262087
:103210000880242008800B2008800E2008800920C8
:10322000088054200880A8200880462008800C20B0
:10323000088017200880092008800F2008800720B8
:10324000088000200880E1204FF0D841088000204D
:103250004FF0DA410880192008801B2008800420E4
:10326000088010200880072008802A200880472036
:103270000880392008800320088006200880088004
:1032800030200880382008800F2008803620410632
:103290000880C8204FF0DA4108802A204FF0D8413A
:1032A000088000204FF0DA41088008800880EF2075
:1032B00008802B204FF0D841088000204FF0DA41E1
:1032C00008800880012008803F2008803A204FF0C5
:1032D000D841088055204FF0DA41088011204FF086
:1032E000D84108804048FFF75DFE29204FF0D841C3
:1032F000088000BD10B5FFF75EFEFFF7B3FEFFF7D5
:10330000E0FEFFF7F0FE10BDF0B5059D00242A2673
:103310004FF0D8473E8006124FF0DA473E80C6B2E3
:103320003E808618761EC6F30F263E808618761ECF
:10333000F6B23E802B264FF0D8473E800E124FF05B
:10334000DA473E80CEB23E80CE18761EC6F30F26F8
:103350003E80CE18761EF6B23E802C264FF0D8471F
:103360003E8000BF03E04FF0DA463580641C02FB6C
:1033700003F6A642F7D8F0BD2A224FF0D8431A80B0
:1033800002124FF0DA431A80C2B21A8002121A8077
:10339000C2B21A802B224FF0D8431A800A124FF083
:1033A000DA431A80CAB21A800A121A80CAB21A8084
:1033B000704730B52A244FF0D8452C8004124FF0C6
:1033C000DA452C80C4B22C808418641EC4F30F2408
:1033D0002C808418641E09E0000C0140002001408C
:1033E0000014014000180140FCBF0200E4B22C8030
:1033F0002B244FF0D8452C800C124FF0DA452C804E
:10340000CCB22C80CC18641EC4F30F242C80CC18B2
:10341000641EE4B22C8030BD70B505460E461446DD
:1034200031462846FFF7A8FF2C204FF0D8410880EE
:103430004FF0DA40048070BD10B500210022002357
:103440004FF0DA400188018803880288C812C00260
:10345000941240EA441040EAE32010BD70B50446DF
:103460000D4629462046FFF787FF2E204FF0D84112
:103470000880FFF7E1FF0646304670BD2DE9F04FAA
:1034800081468A4615461E46A5F120001FFA80FB9C
:103490000C23062251464846FFF78BFF2C204FF0A5
:1034A000D841088000241CE00BEB4B00754901EB70
:1034B000800010F8048000270FE008F0010018B128
:1034C0004FF0DA40068004E04FF6FF704FF0DA412B
:1034D00008804FEA6808781C87B2062FEDDB601C75
:1034E00084B20C2CE0DBBDE8F08FF0B505460E464B
:1034F00014461F4613E0EA2D03DD002506F10C00FB
:1035000086B2B6F59A7F01DD0025002622783B467B
:1035100031462846FFF7B2FFA81D85B2641C20780B
:103520000028E8D1F0BD2DE9F0470646884614464C
:1035300099460027002525463DB94B463022414695
:103540003046FFF79BFFBDE8F08703E00A20B5FB9C
:10355000F0F57F1C002DF9D115E00A20B4FBF0F145
:1035600000FB114000F1300A39467F1E062202FBA3
:103570000161891F88B24B4652464146FFF77EFFE4
:103580000A20B4FBF0F4002CE7D100BFDBE72DE903
:10359000F04104460E4615461F460A20B5FBF0F0E2
:1035A000303000F0FF08A0B23B4642463146FFF7FC
:1035B00065FF0A20B5FBF0F100FB115000F1300867
:1035C000A11D88B23B4642463146FFF757FFBDE892
:1035D000F0812DE9F04705468846174699460026B2
:1035E000002406E04FF07E51384600F03BFA0746D3
:1035F000641C0021384600F051FBF3D94FF07E5196
:10360000384600F0DDF90746641E04F13001CAB205
:10361000A8B24B464146FFF731FFA91D88B24B4681
:103620002E224146FFF72AFF0024002626E01649F5
:10363000384600F01DFA074606E04FF07E51384646
:1036400000F010FA0746641C0021384600F026FB03
:10365000F3D94FF07E51384600F0B2F90746641EA8
:1036600004F13001CAB2B11C062303FB015188B238
:103670004B464146FFF702FF0024761C032ED6DBA3
:10368000BDE8F087583E00080000204100B589B031
:1036900001210420FEF735F801210820FEF724F867
:1036A000C020ADF8200004208DF8230003208DF801
:1036B000220008A97C48FDF75BFD1E208DF81C0048
:1036C00000208DF81D0001208DF81E008DF81F00D0
:1036D00007A8FCF72CFE4FF6FF70ADF8080000209D
:1036E000ADF80400ADF80A00ADF8060001A96F4876
:1036F000FEF732F906216D48FEF70CFF10216B48EA
:10370000FEF7C0FC10216948FEF7C5FC0020ADF8AB
:103710001000ADF812000120ADF814000020ADF843
:103720001600ADF8180004A96048FEF7A8FB0420B5
:10373000ADF8100004A95D48FEF7A1FB01215B482C
:10374000FEF766FC012206215848FEF77CFC09B012
:1037500000BDF0B589B04FF4FA7740F27714FA253E
:103760007D2601210320FDF7CCFF01210C20FDF770
:10377000BBFFC620ADF8200018208DF823000320E1
:103780008DF8220008A94A48FDF7F2FC0320ADF8A5
:10379000200008A94448FDF7EBFC40F2E730ADF803
:1037A0001800ADF814000020ADF81A00ADF81600AE
:1037B00005A94048FEF7D0F86320ADF818000020B6
:1037C000ADF81400ADF81A00ADF8160005A96807A9
:1037D000FEF7C2F86020ADF804000120ADF8060045
:1037E000ADF80A700020ADF80C0001A93148FEF7D1
:1037F000F0F808212F48FEF73BFD0120ADF8060048
:10380000ADF80A4001A92B48FEF725F908212948FF
:10381000FEF737FD01A96807FEF71DF90821C80664
:10382000FEF72FFD0120ADF80600ADF80A5001A902
:103830002048FEF75DF908211E48FEF72FFD01A97B
:103840006807FEF755F90821C806FEF727FD012095
:10385000ADF80600ADF80A6001A91648FEF793F925
:1038600008211448FEF723FD01211248FEF7D0FC81
:1038700001218807FEF7CCFC20214806FEF741FE17
:103880008021C805FEF74FFE01218807FEF7C0FB27
:1038900001210848FEF7BCFB09B0F0BD10B5FFF7E9
:1038A00058FFFFF7F3FE10BD000C01400008004078
:1038B000000801400004004000B591B04FF44040C2
:1038C000FDF776FE01210846FDF701FF01214FF4C7
:1038D0000470FDF709FF0220ADF8000000208DF80C
:1038E000030069463248FDF743FC3248FCF7B0FF5D
:1038F000314801903148029000200390012004904B
:103900000020059006904FF480700790800008908A
:103910002020099000020A9000200B9001A9254860
:10392000FDF738F801212348FDF75FF800200C90DF
:1039300001208DF834008DF835004FF460200E9092
:1039400000200F9001208DF840000CA91A484C3837
:10395000FCF77DFD052301220B2117484C38FCF7AD
:103960000EFE012114484C38FCF7A8FD0121124835
:103970004C38FCF798FD10484C38FCF7B6FD00BFFA
:103980000D484C38FCF7B6FD0028F9D10A484C38F0
:10399000FCF7BAFD00BF08484C38FCF7BAFD002818
:1039A000F9D1012104484C38FCF7BDFD11B000BD30
:1039B00000100140080002404C2401406C0000202F
:1039C000F0B480EA0102D40F4200B2EB410F02D200
:1039D0000246084611464A0042D0C30DDDB2C1F38B
:1039E000C752AD1A202D35DAC1F3160141F4000299
:1039F00004B15242C5F1200602FA06F12A411044F0
:103A0000B3EBD05F23D0C4B1012DA0EBC35009DCD0
:103A1000F0BC4FF0004202EAC352DBB200F50000F6
:103A200000F04FB9400000F1807000EBC350A0F1EE
:103A3000807040EAD170490009E0490841EAC0714C
:103A4000A0EBC35000F50000400800EBC350F0BCF1
:103A500000F02EB96142012202EB4101001BF6E7A2
:103A6000F0BC704781F00041AAE780F00040A7E772
:103A700080EA010210B502F00043400022D04A0063
:103A80001FD0010E01EB1261C0F35600C2F35602C3
:103A900040F4000042F40002A0FB022000047F3941
:103AA000140400D0401C50EA124001D44000491ECA
:103AB000C2B20C0604EBD010401C4008802A02D091
:103AC00003E0002010BD20F00100002900DA0020F2
:103AD000184310BD30B480EA010202F0004530F016
:103AE000004221F0004013D090B1C30DD40DC2F3B9
:103AF0001601C0F31600E41A41F4000140F400027C
:103B00007D34914201D3641C00E04900002C02DAAC
:103B100030BC002070474FF400000023914201D3D5
:103B2000891A034340084FEA4101F7D151B191424C
:103B300002D14FF0004105E002D24FF0010101E057
:103B40006FF0010103EBC450284430BC00F0B0B862
:103B50002DE9FE4F81EA030404F0004421F0004106
:103B600000944FF0000B23F0004350EA01045ED0B4
:103B700052EA03045BD0C3F30A54C1F30A552C4440
:103B8000A4F2F3340194A0FB0254C1F3130141F4F5
:103B90008011C3F3130343F4801301FB024400FBC1
:103BA000034E840A970A44EA815447EA8357A4FBE8
:103BB000076802958D0A05FB07854FEA932C04FBE5
:103BC0000C542705029D4FEA065847EA1637B5EB15
:103BD00008056EEB070C870E920E47EA811742EA42
:103BE0008312A7FB0201B6EB0B0164EB00042B0D63
:103BF00043EA0C335E1844EB1C50DA465146E7FBAF
:103C00000201C5F313044FEA0B3343EA14534FEA9E
:103C10000432019C43EA0603A4F10C040294009CC4
:103C2000CDE900B400F08AF803B0BDE8F08F0020C1
:103C30000146F9E796230022114600F042B800F051
:103C4000004230F000400AD0C10D01F56071C0F3B0
:103C5000160042EA0151C208400711437047002094
:103C60000146704701F0004330B421F0004150EAB2
:103C7000010206D00A0DA2F56072C1F31301002AF9
:103C800002DC30BC00207047440F44EAC104C1008C
:103C9000E01830BC00EBC25000F00AB8002801DB8D
:103CA000C0F10040002901DBC1F1004188427047AA
:103CB0000029A8BF7047401C490008BF20F0010040
:103CC000704710B4B0FA80FC00FA0CF050EA01041E
:103CD00004BF10BC704749B1CCF1200421FA04F4B0
:103CE00011FA0CF118BF012121430843A3EB0C0189
:103CF000CB1D4FEA00614FEA102042BF002010BCEC
:103D0000704700EBC35010440029A4BF10BC70479B
:103D1000401C490008BF20F0010010BC704710B5DE
:103D2000141E73F1000408DA401C41F100019218DE
:103D30005B411A4301D120F0010010BD2DE9F04D87
:103D400092469B4611B1B1FA81F202E0B0FA80F2DC
:103D50002032904600F052F804460F4640EA0A002E
:103D600041EA0B0153465A46084313D0114653EA21
:103D7000010019D0C8F14002504600F04EF8054647
:103D80000E4650465946424600F038F8084305D0E2
:103D9000012004E020463946BDE8F08D00200543AF
:103DA00046EAE0762C4337430A986305E40AA0EB21
:103DB00008000022FD0A44EA47540A3002D50020D8
:103DC0000146E9E7010510196941DDE908450019D7
:103DD0006941BDE8F04DA2E7064C074D06E0E068FA
:103DE00040F0010394E8070098471034AC42F6D342
:103DF000FCF7A2F9CC420008EC420008202A04DBC0
:103E0000203A00FA02F1002070479140C2F12003ED
:103E100020FA03F3194390407047202A04DB203A2C
:103E200021FA02F00021704721FA02F3D040C2F1DA
:103E30002002914008431946704702E008C8121F4B
:103E400008C1002AFAD170477047002001E001C183
:103E5000121F002AFBD17047000000000000000084
:103E60000000000000000404040404040004000036
:103E700000140A0A000000000000000000001414F2
:103E80003F140A3F0A0A000000041E1505060C1420
:103E9000150F0400000012150D0A142C2A12000040
:103EA0000000040A0A1E151509360000000202016E
:103EB00000000000000000000020100808080808AA
:103EC000081020000002040808080808080402007E
:103ED00000000004150E0E1504000000000004048C
:103EE000041F0404040000000000000000000000A3
:103EF0000002020100000000001F0000000000009E
:103F0000000000000000000000020000001008088F
:103F1000080404020202010000000E111111111127
:103F2000110E00000000040604040404040E000046
:103F300000000E1111080402011F000000000E1104
:103F4000100C1010110E00000000080C0A0A091EC7
:103F50000818000000001F01010F1010110E0000D2
:103F600000000E09010F1111110E000000001F09C1
:103F7000080404040404000000000E11110E1111C5
:103F8000110E000000000E1111111E10120E000083
:103F90000000000004000000000400000000000019
:103FA00000040000000404000020100804020408BB
:103FB00010200000000000001F00001F0000000093
:103FC00000020408102010080402000000000E1176
:103FD000110804040004000000000E111915151D3D
:103FE000011E0000000004040C0A0A1E1233000027
:103FF00000000F12120E1212120F000000001E110C
:1040000001010101110E000000000F121212121224
:10401000120F000000001F120A0E0A02121F0000F9
:1040200000001F120A0E0A020207000000001C1204
:1040300001013911120C000000003312121E12127D
:104040001233000000001F0404040404041F0000D5
:1040500000003E0808080808080907000000371299
:104060000A060A0A123700000000070202020202D2
:10407000223F000000001B1B1B1B1515151500001F
:1040800000003B1216161A1A1217000000000E113B
:1040900011111111110E000000000F12120E020278
:1040A0000207000000000E1111111117190E18005F
:1040B00000000F12120E0A121237000000001E112B
:1040C00001060810110F000000001F15040404046D
:1040D000040E00000000331212121212120C000023
:1040E00000003312120A0A0C040400000000151527
:1040F000150E0A0A0A0A000000001B0A0A04040A34
:104100000A1B000000001B0A0A040404040E00003D
:1041100000001F0908040402121F0000001C040410
:104120000404040404041C0000020202040408083D
:1041300008100000000E08080808080808080E000B
:1041400000040A0000000000000000000000000061
:10415000000000000000003F00040000000000001C
:104160000000000000000000000C121C123C0000C7
:1041700000000302020E1212120E000000000000E6
:10418000001C1202021C000000001810101C121269
:10419000123C000000000000000C121E021C000077
:1041A00000003804041E0404041E00000000000087
:1041B000003C120C021E221C00000302020E12120E
:1041C000123700000000040000060404040E000082
:1041D00000000800000C0808080808070000030297
:1041E000023A0A0E12370000000007040404040417
:1041F000041F000000000000000F15151515000039
:1042000000000000000F1212123700000000000032
:10421000000C1212120C000000000000000F12121D
:10422000120E020700000000001C1212121C1038AF
:1042300000000000001B0602020700000000000052
:10424000001E020C101E000000000004040E0404F6
:104250000418000000000000001B1212123C0000B5
:10426000000000000037120A0C04000000000000EB
:104270000015150E0A0A000000000000001B0A04C9
:104280000A1B0000000000000037120A0C0404039F
:1042900000000000001E0804041E000000180808AA
:1042A000080408080808180008080808080808088A
:1042B00008080808000604040408040404040600AE
:1042C000022518000000000000000000EC42000879
:1042D00000000020700000003A3E00085C43000827
:1042E00070000020000400004A3E000800A24A04BA
:1042F0000000000000000000010203040607080996
:10430000000000000102030401020304060708097B
:104310000204060800000000000000000000000089
:10432000000000000000000000000000000000008D
:10433000000000000000000000000000000000007D
:10434000000000000000000000000000300000003D
:0C43500000000000000000000000000061
:0400000508000131BD
:00000001FF
