:020000040800F2
:10000000902E0020612B0008592D00085B2D000860
:100010005F2D0008632D0008672D00080000000018
:100020000000000000000000000000006B2D000830
:100030006D2D0008000000006F2D0008712D0008D4
:100040007B2B00087B2B00087B2B00087B2B0008F8
:100050007B2B00087B2B00087B2B00087B2B0008E8
:100060007B2B00087B2B00087B2B00087B2B0008D8
:100070007B2B00087B2B00087B2B00087B2B0008C8
:100080007B2B00087B2B00087B2B00087B2B0008B8
:100090007B2B00087B2B00087B2B00087B2B0008A8
:1000A0007B2B00087B2B00087B2B00087B2B000898
:1000B0007B2B00087B2B0008C32D00087B2B00083E
:1000C0007B2B00087B2B00087B2B00087B2B000878
:1000D0007B2B0008792D00087B2B00087B2B000868
:1000E0007B2B00087B2B00087B2B00087B2B000858
:1000F0007B2B00087B2B00087B2B00087B2B000848
:100100007B2B00087B2B00087B2B00087B2B000837
:100110007B2B00087B2B00087B2B00087B2B000827
:100120007B2B00087B2B00087B2B00087B2B000817
:10013000DFF80CD004F008FE00480047852B0008CB
:10014000902E00200CB50020019000906C480068B3
:1001500040F480306A49086000BF6948006800F4D4
:10016000003000900198401C0190009818B9019847
:10017000B0F5A06FF1D16248006800F4003010B112
:100180000120009001E0002000900098012843D158
:100190005C48006840F010005A4908600846006852
:1001A00020F0030008600846006840F00200086084
:1001B00053484068524948600846406848600846CD
:1001C000406840F4806048600846406820F47C1035
:1001D00048600846406840F4E810486008460068F7
:1001E00040F08070086000BF4548006800F0007073
:1001F0000028F9D04248406820F003004049486098
:100200000846406840F00200486000BF3C48406833
:1002100000F00C000828F9D10CBD10B5FFF792FFD3
:1002200010BD10B53648006840F001003449086040
:10023000084640683449084031494860084600682B
:10024000324908402E4908600846006820F48020A2
:1002500008600846406820F4FE0048604FF41F0024
:100260008860FFF7DAFF4FF000602949086010BD91
:1002700010B5002100200022214B5B6803F00C0127
:1002800021B1042906D0082928D107E0214B224CAE
:10029000236027E01F4B204C236023E0184B5B6852
:1002A00003F47010164B5B6803F48032022303EBF7
:1002B000904022B9194B4343174C23600DE0104B7B
:1002C0005B6803F4003323B1144B4343124C2360A7
:1002D00003E0104B4343104C236003E00D4B0E4CE6
:1002E000236000BF00BF064B5B68C3F303130C4CD5
:1002F000E15C094B1B68CB40074C236010BD00003C
:1003000000100240002002400000FFF8FFFFF6FE50
:1003100008ED00E000127A000000002000093D0016
:100320000400002031490143314A1160704770B523
:10033000002100230F22C47804B32D4C246804F458
:10034000E064C4F5E064210AC1F10403CA404478C2
:1003500004FA03F18478144021430901254C0678FE
:10036000A155047804F01F050124AC4005786D11F7
:10037000AD0005F1E025C5F8004109E0047804F07E
:100380001F050124AC401C4D0678761145F8264027
:1003900070BD1A4A0A400243154B1B1F1A60704772
:1003A00039B1134A121D12680243114B1B1D1A600A
:1003B00006E00F4A121D126882430D4B1B1D1A6086
:1003C0007047042808D14FF0E021096941F0040189
:1003D0004FF0E022116107E04FF0E021096921F0C0
:1003E00004014FF0E0221161704700000000FA059F
:1003F0000CED00E000E400E080E100E080FFFF1F82
:1004000010B50446FA48844208D10121401501F094
:100410004BFA0021601501F047FA17E0F5488442D5
:1004200008D10121001501F03FFA0021201501F04B
:100430003BFA0BE0F048844208D10121C80301F0E7
:1004400033FA00214FF4004001F02EFA10BD30B510
:100450000246002000235068E84C20400D790C68CB
:1004600044EA0524204350609068E54C2040D1E9DF
:1004700002542C434D7944EA450420439060D06AED
:1004800020F470000C7C641EE4B2234340EA035065
:10049000D06230BD00210160017141718160C16095
:1004A00001210174704721B1826842F0010282602B
:1004B00003E0826822F001028260704721B1826805
:1004C00042F48072826003E0826822F4807282606B
:1004D000704710B50023CBB21AB144681C43446086
:1004E00002E044689C43446010BD816841F008010B
:1004F00081607047014600208A6802F008020AB154
:10050000012000E000207047816841F00401816013
:100510007047014600208A6802F004020AB10120F7
:1005200000E00020704721B1826842F4A00282609E
:1005300003E0826822F4A002826070470146002036
:100540008A6802F480020AB1012000E000207047AE
:1005500010B50A4600210023416821F46041531E72
:1005600041EA4331416010BD21B1426842F400626A
:10057000426003E0426822F4006242607047F0B5D6
:1005800004460D4600200021092D11DDE068A5F18B
:100590000A0606EB4607072606FA07F18843A5F187
:1005A0000A0606EB460603FA06F10843E0600CE093
:1005B000206905EB4507072606FA07F1884305EB96
:1005C000450603FA06F108432061072A0FDA606B3B
:1005D000561E06EB86071F2606FA07F18843561EAD
:1005E00006EB860605FA06F10843606322E00D2A51
:1005F0000FDA206BD61F06EB86071F2606FA07F1D7
:100600008843D61F06EB860605FA06F108432063E9
:1006100010E0E06AA2F10D0606EB86071F2606FA37
:1006200007F18843A2F10D0606EB860605FA06F1EE
:100630000843E062F0BD21B1826842F4801282601A
:1006400003E0826822F48012826070470146C86C21
:1006500080B2704766484C300068704721B14268EC
:1006600042F48062426003E0426822F480624260A9
:10067000704721B1426842F48052426003E0426810
:1006800022F48052426070470A460021816821F4BA
:10069000E04111438160704721B1826842F4004219
:1006A000826003E0826822F400428260704721B1D8
:1006B000826842F40212826003E0826822F402122D
:1006C00082607047014600208A6802F400120AB175
:1006D000012000E000207047F0B5044615460020D8
:1006E00000220026092911DDE068A1F10A0707EBC5
:1006F000470C072707FA0CF29043A1F10A0707EB12
:10070000470703FA07F21043E0600CE0206901EBB1
:10071000410C072707FA0CF2904301EB410703FA5B
:1007200007F210432061A06BC0F30156EF1C06F1E5
:10073000010CA7EB0C0707EB870C1F2707FA0CF23D
:100740009043EF1C06F1010CA7EB0C0707EB8707A2
:1007500001FA07F21043A063F0BD10B50A4600216C
:100760000023816B21F44011531E41EA0351816340
:1007700010BD08B5002300930090009B0B4400932C
:10078000009B1A6008BD08B5024600200090009248
:1007900001F12800009B184400900098006880B286
:1007A00008BD0A4600214168164B194011434160BB
:1007B00070474162826270470A460021416821F019
:1007C0001F0111434160704740B109490831096870
:1007D00041F40001064A0832116007E0044908317B
:1007E000096821F40001024A0832116070470000D4
:1007F0000024014000280140003C0140FFFEF0FFC2
:10080000FDF7F1FFFFFD3FFF0246002013680B409C
:100810000BB1012000E000207047CA43026070471E
:1008200070B502460020002300240B125568CEB29A
:1008300005EA060415681D4015B10CB1012000E061
:10084000002070BD00220A12D343036070470000ED
:1008500010B50121480701F034F800214FF0005095
:1008600001F02FF810BD30B5002200235A4C226849
:1008700040F6FE748440A243D1E900452C438D68C4
:100880002C43CD6844EA050303FA00F42243524C9A
:10089000226030BD0021016041608160C16070470D
:1008A00039B14D4A1268012383401A434A4B1A60FA
:1008B00006E0494A1268012383409A43464B1A6076
:1008C000704741B1444A12684FF4805383401A4341
:1008D000414B1A6007E0404A12684FF4805383404E
:1008E0009A433D4B1A60704710B551B13A4A121DF8
:1008F000126804090123A3401A43374B1B1D1A60D9
:1009000009E0354A121D126804090123A3409A43E5
:10091000314B1B1D1A6010BD40B12F49091D0968DC
:1009200041F003012C4A121D116007E02A49091DFC
:10093000096821F00301284A121D1160704710B5A3
:100940003AB1254B1B6801FA00F42343224C236083
:1009500006E0214B1B6801FA00F4A3431E4C236000
:1009600010BD08B5002200921B4A009200F1080257
:10097000009B1A440092009A116008BD08B500223D
:100980000092154A009200F11402009B1A44009252
:10099000009A116008BD30B500240023082802D158
:1009A00042EA012401E042EA01440B4B00F1200538
:1009B0002B441C6030BD08B501460020009006485D
:1009C00000902C2000EB9100009A104400900098B9
:1009D000006880B208BD00000074004001684FF656
:1009E000FE72114001600021016041608160C160C0
:1009F0008D49884208D18C490839496841F00F0176
:100A0000894A083A51608AE087491431884208D1FE
:100A100085490839496841F0F001834A083A516034
:100A20007DE081492831884208D17F4908394968E9
:100A300041F470617C4A083A516070E07A493C3177
:100A4000884208D178490839496841F47041764AAA
:100A5000083A516063E074495031884208D17249C4
:100A60000839496841F470216F4A083A516056E0EC
:100A70006D496431884208D16B490839496841F4AD
:100A80007001694A083A516049E067497831884203
:100A900008D165490839496841F07061624A083AED
:100AA00051603CE06149884206D1011F096841F06C
:100AB0000F01021F116032E05C491431884208D1F5
:100AC0005A49091F096841F0F001584A121F116084
:100AD00025E056492831884208D15449091F096840
:100AE00041F47061514A121F116018E04F493C31C6
:100AF000884208D14D49091F096841F470414B4AA9
:100B0000121F11600BE049495031884207D1474913
:100B1000091F096841F47021444A121F116070478F
:100B200010B50022026847F6F0739A430C6A8B688E
:100B300023430C6923434C6923438C692343CC69C9
:100B400023434C6A23438C6A23431A430260CB68D5
:100B500043600B6883604B68C36010BD0021016077
:100B600041608160C160016141618161C161016277
:100B700041628162704721B1026842F00102026065
:100B800004E002684FF6FE731A40026070471AB123
:100B900003680B43036002E003688B430360704704
:100BA000416070470146486880B2704701460020A6
:100BB000002201F080531BB11C4B083B1A6802E075
:100BC000194B083B1A6802EA01030BB1012000E04F
:100BD0000020704700F0805119B11449091F0860C6
:100BE00002E01149083948607047014600200022A0
:100BF00001F080531BB10D4B083B1A6802E00A4B11
:100C0000083B1A6802EA01030BB1012000E0002052
:100C1000704700F0805119B10449091F086002E0D3
:100C20000149083948607047080002400804024042
:100C300030B943F2DB028100A1F1C0410A6005E056
:100C400043F2D2028100A1F1C0410A606FF070420C
:100C5000411C8900A1F1C0410A608100A1F1C0419D
:100C6000C1F80421704710280AD118214FF0204202
:100C70001166402151664FF0FC319166D16610E05B
:100C80001821F74A116040214FF02042C2F8841029
:100C90004FF0FC31F24A083211604FF02042C2F8A6
:100CA0008C1070471820EE4920310860002009069A
:100CB000C1F8A4004FF0FC30E94928310860091D53
:100CC0000860091D08607047D0E901121143C2682D
:100CD0001143026911434269114382691143C26998
:100CE0001143026A1143426A1143826A1143C26A84
:100CF0001143026B114302689200A2F1C0421160DD
:100D0000816808290BD101688900A1F1C0410968F7
:100D100041F0400201688900A1F1C0410A60416BC5
:100D20000968426B526841EA0211426B926841EADB
:100D30000221426B928941EA0241426B128A41EAE6
:100D40000251426B127D41EA0261426B926911438A
:100D50000268521C9200A2F1C0421160C16AB1F552
:100D6000804F1BD1816B0968826B526841EA021186
:100D7000826B926841EA0221826B128A41EA025137
:100D8000826B127D41EA0261826B926911430268B3
:100D90009200A2F1C042C2F8041107E06FF0704265
:100DA00001688900A1F1C041C1F80421704730B544
:100DB000002100220023446844F0080485682C4385
:100DC000C5682C4305692C43456944EA4524856977
:100DD00044EA4531C4692468C5696D6844EA05245C
:100DE000C5692D8944EA0544C5692D7B44EA05623D
:100DF000046A2468056A6D6844EA0524056A2D8939
:100E000044EA0544056A2D7B44EA05630468102C16
:100E100005D14FF020442166A266E36608E0904CBD
:100E200021604FF02044C4F888208D4C0C3423609E
:100E300030BD016841F01001426841EA42218268F8
:100E400041EA4231864A20321160C1680968C268AD
:100E5000526841EA0221C268128941EA0241C2682D
:100E6000127B41EA02617E4A2832116001690968F9
:100E70000269526841EA02210269128941EA02418B
:100E80000269127B41EA0261754A2C3211604169A4
:100E900009684269526841EA02214269128941EABD
:100EA00002414269127B41EA02614FF02042C2F8DE
:100EB000B010704700210160022141600021816073
:100EC000C160016141618161C16101624FF4805182
:100ED0004162490081620021C16201630F21426BBE
:100EE0001160426B5160FF21426B91600F21426B98
:100EF000D160426B1161426B51610021426B916183
:100F00000F21826B1160826B5160FF21826B9160B7
:100F10000F21826BD160826B1161826B5161002164
:100F2000826B9161704710210160002141608160F6
:100F3000C160016141618161FC21C2691160C269C6
:100F40005160C2699160C269D160026A1160026A2F
:100F50005160026A9160026AD160704700210160AD
:100F600041608160FC21C2681160C2685160C26842
:100F70009160C268D16002691160026951600269C2
:100F800091600269D16042691160426951604269B1
:100F900091604269D160704751B18200A2F1C042B4
:100FA000126842F001038200A2F1C042136009E01E
:100FB0008200A2F1C04212682A4B1A408300A3F1BA
:100FC000C0431A60704799B1102808D14FF02042F1
:100FD000126E42F004024FF020431A661DE0204AD0
:100FE000126842F004024FF02043C3F8802014E05E
:100FF000102809D14FF02042126E1A4BDB1E1A4006
:101000004FF020431A6608E0154A1268154BDB1EA4
:101010001A404FF02043C3F88020704748B1104970
:101020002031096841F004014FF02042C2F8A010BD
:1010300009E00B49203109680A4AD21E11404FF0DD
:101040002042C2F8A0107047B9B110280CD14FF05F
:101050002042126E42F040024FF020431A661FE019
:10106000800000A0FEFF0F00724A126842F04002AA
:101070004FF02043C3F8802012E0102808D14FF031
:101080002042126E6C4B1A404FF020431A6607E064
:10109000684A1268684B1A404FF02043C3F880201A
:1010A000704701460020102903D14FF02042506FB5
:1010B00002E0604A14321068704710B5F2B110288F
:1010C00007D14FF020435B6E0B434FF02044636623
:1010D00032E0B0F5807F08D1564B1B1D1B680B43D7
:1010E0004FF02044C4F8843026E0524B24331B6870
:1010F0000B434FF02044C4F8A4301DE0102807D162
:101100004FF020435B6E8B434FF02044636613E047
:10111000B0F5807F08D1474B1B1D1B688B434FF0F8
:101120002044C4F8843007E0424B24331B688B43CF
:101130004FF02044C4F8A43010BD10B50246002082
:101140000023102A03D14FF02044636E09E0B2F56A
:10115000807F03D1374C241D236802E0354C2434B2
:10116000236803EA01040CB1012000E0002010BD57
:10117000102807D14FF02042526E8A434FF020438F
:101180005A6613E0B0F5807F08D12A4A121D126812
:101190008A434FF02043C3F8842007E0254A2432D5
:1011A00012688A434FF02043C3F8A420704770B5FB
:1011B00002460020002300240025102A03D14FF00E
:1011C0002046736E09E0B2F5807F03D1194E361DBB
:1011D000336802E0174E2436336803EA010403EA59
:1011E000D10514B10DB1012000E0002070BD102820
:1011F00008D14FF02042526E22EAD1024FF0204334
:101200005A6615E0B0F5807F09D10A4A121D1268AE
:1012100022EAD1024FF02043C3F8842008E0054AB7
:101220002432126822EAD1024FF02043C3F8A420EE
:1012300070470000800000A0BFFF0F0010B50446FB
:10124000CC48844208D10121042000F02DFB00216C
:10125000042000F029FB46E0C748844208D1012160
:10126000082000F021FB0021082000F01DFB3AE0DF
:10127000C248844208D10121102000F015FB002152
:10128000102000F011FB2EE0BD48844208D101215E
:10129000202000F009FB0021202000F005FB22E0C7
:1012A000B848844208D10121402000F0FDFA002115
:1012B000402000F0F9FA16E0B348844208D1012139
:1012C000802000F0F1FA0021802000F0EDFA0AE021
:1012D000AE48844207D10121801500F0E5FA0021D3
:1012E000A01500F0E1FA10BD10B50121084600F08C
:1012F000DBFA0021012000F0D7FA10BD2DE9F04102
:10130000024600250026002000230024002791F833
:1013100003C00CF00F0591F803C00CF0100CBCF1E9
:10132000000F03D091F802C04CEA050591F800C007
:10133000BCF1000F31D0146800202BE04FF0010CFD
:101340000CFA00F3B1F800C00CEA03069E4220D16B
:1013500083004FF00F0C0CFA03F7BC4305FA03FCB3
:101360004CEA040491F803C0BCF1280F06D14FF0F9
:10137000010C0CFA00FCC2F814C00AE091F803C09A
:10138000BCF1480F05D14FF0010C0CFA00FCC2F87B
:1013900010C0401C0828D1D31460B1F800C0BCF1C3
:1013A000FF0F34DD546800202EE000F1080C4FF0F0
:1013B000010808FA0CF3B1F800C00CEA03069E42DB
:1013C00021D183004FF00F0C0CFA03F7BC4305FA50
:1013D00003FC4CEA040491F803C0BCF1280F05D1CA
:1013E00000F1080C08FA0CF8C2F8148091F803C058
:1013F000BCF1480F07D100F1080C4FF0010808FAC2
:101400000CF8C2F81080401C0828CED35460BDE808
:10141000F0814FF6FF710180022181700421C170BB
:1014200070470246002093680B400BB1012000E09A
:10143000002070470146886880B27047024600204D
:10144000D3680B400BB1012000E00020704701463B
:10145000C86880B2704701617047416170470AB146
:10146000016100E041617047C16070474FF4803214
:101470000A438261816182618269826970470246A2
:101480000020434B18684FF68073184040EA021062
:1014900008433F4B186070473E49C8617047F0B53C
:1014A0000A46002300240021002500F00046B6F182
:1014B000004F02D1364EF16901E0354E7168C0F33C
:1014C000034583B200F44016B6F5401F08D121F061
:1014D00070612F4E766826F070662D4F7E6012E0A8
:1014E00000F48016B6F5801F06D1032606FA05F42F
:1014F000A14341F0706106E0460D360103FA06F69D
:10150000B14341F0706122B1460D360103FA06F68F
:10151000314300F00046B6F1004F02D11C4EF1619C
:1015200001E01B4E7160F0BD30B500228B071C0F2F
:101530000F2303FA04F2164B08338C1053F82430AF
:101540009343134C08348D1044F8253023468C10F7
:1015500053F824308C07240F00FA04F423430C4C76
:1015600008348D1044F8253030BD0A49DC3108605C
:101570007047000000080140000C014000100140CD
:101580000014014000180140001C014000200140EF
:101590000000014000002042DF48006840F00100E8
:1015A000DD49086008464068DC490840DA4948607F
:1015B00008460068DA490840D749086008460068CC
:1015C00020F4802008600846406820F4FE0048604F
:1015D0004FF41F0088607047CF49096821F48031BB
:1015E000CD4A11601146096821F480211160B0F5DF
:1015F000803F03D0B0F5802F0ED106E0C6490968C0
:1016000041F48031C44A116007E0C349096841F4DC
:10161000A021C14A116000E000BF00BF704710B5B3
:1016200001460022002300204A11012A02D1BA4CAF
:10163000236806E0022A02D1B74C236A01E0B64CC7
:10164000636A01F01F02012494401C400CB1012088
:1016500000E0002010BD38B50020009000240025D7
:1016600000BF3120FFF7DBFF05460098401C0090CB
:101670000098B0F5A06F01D0002DF2D03120FFF717
:10168000CEFF08B1012400E00024204638BD014609
:101690000020A14A106820F0F80040EAC100106064
:1016A0007047A04908607047024600209A4B58686E
:1016B00020F47C1042EA01031843974B58607047AE
:1016C00098490866704701460020934A506820F008
:1016D00003000843506070478F48406800F00C00DA
:1016E0007047014600208C4A506820F0F000084303
:1016F0005060704701460020874A506820F4E0603F
:1017000008435060704701460020834A506820F427
:10171000605040EAC1005060704729B17E4A527A59
:1017200002437D4B5A7204E07B4A527A82437A4BE1
:101730005A7270477B49D8310860704701460020D3
:10174000754A506820F440400843506070470021BB
:10175000714A20321170704A82F82010012802D09C
:1017600004280AD104E001216B4A2032117005E0FF
:101770000521694A2032117000E000BF00BF7047A8
:101780006949086070476449096A0143624A116205
:101790007047654944390860704730B50021002220
:1017A000002400235C4D6D6805F00C0121B1042973
:1017B00005D0082923D105E05C4D056022E05B4D92
:1017C00005601FE0544D6D6805F47012524D6D6850
:1017D00005F48034022505EB92421CB9544D554363
:1017E00005600BE04C4D6D6805F400351DB1504DA2
:1017F0005543056002E04D4D5543056002E04B4DF9
:10180000056000BF00BF444D6D6805F0F001090997
:10181000484D6B5C0568DD4045603F4D6D6805F4E3
:10182000E061090A434D6B5C4568DD4085603A4DD7
:101830006D6805F46051C90A3E4D6B5C4568DD403A
:10184000C560354D6D6805F44041890B3A4D6B5CC0
:10185000C568B5FBF3F5056130BD29B12E4A526963
:1018600002432D4B5A6104E02B4A526982432A4BB2
:101870005A61704729B1284A92690243264B9A61FE
:1018800004E0254A92698243234B9A61704729B14B
:10189000214AD2690243204BDA6104E01E4AD26930
:1018A00082431D4BDA61704729B11B4AD26802435B
:1018B000194BDA6004E0184AD2688243164BDA60AA
:1018C000704729B1144A12690243134B1A6104E0AC
:1018D000114A12698243104B1A617047124940390C
:1018E000086070470F49C86470470B49C87170475A
:1018F0000948406A40F080700749486270470146D5
:101900000020054A92680A400AB1012000E0002048
:101910007047014988727047001002400000FFF8CC
:10192000FFFFF6FE000042428004424200127A00AD
:1019300000093D00140000202400002010B50446DA
:10194000FE48844208D10121C014FFF7ADFF0021F9
:10195000E014FFF7A9FFC4E0B4F1804F08D10121E2
:101960000846FFF7AEFF00210120FFF7AAFFB8E00D
:10197000F348844208D101210220FFF7A2FF002191
:101980000220FFF79EFFACE0EE48844208D101211F
:101990000420FFF796FF00210420FFF792FFA0E04C
:1019A000E948844208D101210820FFF78AFF00217D
:1019B0000820FFF786FF94E0E448844208D1012123
:1019C0001020FFF77EFF00211020FFF77AFF88E04C
:1019D000DF48844208D101212020FFF772FF002157
:1019E0002020FFF76EFF7CE0DA48844208D1012115
:1019F0004014FFF759FF00216014FFF755FF70E016
:101A0000D548844209D10121C804FFF74DFF0021C8
:101A10004FF40020FFF748FF63E0D048844209D12B
:101A200001210805FFF740FF00214FF48010FFF768
:101A30003BFF56E0CA48844209D101214805FFF71F
:101A400033FF00214FF40010FFF72EFF49E0C54897
:101A5000844208D101214020FFF733FF00214020BC
:101A6000FFF72FFF3DE0C048844208D101218020CC
:101A7000FFF727FF00218020FFF723FF31E0BB485D
:101A8000844208D101218015FFF71BFF0021A0151A
:101A9000FFF717FF25E0B648844209D10121080469
:101AA000FFF702FF00214FF48030FFF7FDFE18E042
:101AB000B048844209D101214804FFF7F5FE002116
:101AC0004FF40030FFF7F0FE0BE0AB48844208D142
:101AD00001218804FFF7E8FE00214FF48020FFF782
:101AE000E3FE10BD00220288944B98420ED0994B21
:101AF00098420BD0B0F1804F08D0914B984205D05E
:101B0000904B984202D0904B984204D14FF68F737D
:101B10001A404B881A438D4B984207D08C4B984201
:101B200004D04FF6FF431A40CB881A4302808B88BB
:101B300083850B880385814B98420BD0854B984257
:101B400008D08B4B984205D08A4B984202D08A4BE2
:101B5000984201D10B7A038601238382704770B5C6
:101B6000002400220023058C4FF6FE7635400584C4
:101B7000028C8388048B4FF68F752C40B51E2C4049
:101B80000D882C43751E2A400D892A434D882A430F
:101B90006A4DA8420BD06F4DA84208D0744DA842A0
:101BA00005D0744DA84202D0734DA84213D14FF610
:101BB000F7752A404D892A434FF6FB752A408D88D8
:101BC0002A434FF6FF652B404FF6FF552B408D897A
:101BD0002B43CD892B4383800483CD888586028463
:101BE00070BD70B5002400220023058C4FF6EF76FF
:101BF00035400584028C8388048B48F6FF752C40A1
:101C00004FF6FF452C400D884FF6FF7606EA052576
:101C10002C434FF6DF752A400D8906EA05152A4345
:101C20004D8806EA05152A43444DA84202D0494D85
:101C3000A8421DD14FF67F752A404D894FF6FF7699
:101C400006EA05152A434FF6BF752A408D8806EA35
:101C500005152A434FF6FF352B404FF2FF752B40F9
:101C60008D8906EA85052B43CD8906EA85052B4338
:101C700083800483CD880587028470BD70B50024FD
:101C800000220023058C4FF6FF6635400584028C48
:101C90008388848B4FF68F752C404FF6FC752C4053
:101CA0000D882C434FF6FF552A400D894FF6FF76DD
:101CB00006EA05252A434D8806EA05252A431F4DD5
:101CC000A84202D0234DA8421DD14FF2FF752A40F1
:101CD0004D894FF6FF7606EA05252A434FF6FF3574
:101CE0002A408D8806EA05252A434EF6FF752B40CB
:101CF0004DF6FF752B408D8906EA05152B43CD89DE
:101D000006EA05152B4383808483CD88858702846A
:101D100070BD70B5002200230024058C4EF6FF76BE
:101D200035400584038C8488828B48F6FF752A40F1
:101D30004FF6FF452A400D8820E00000002C0140AE
:101D40000004004000080040000C0040001000406B
:101D50000014004000340140004C0140005001409C
:101D60000054014000180040001C004000200040CA
:101D70000040014000440140004801404FF6FF761A
:101D800006EA05252A434DF6FF752B400D8906EA24
:101D900005352B434D8806EA05352B43FA4DA842FD
:101DA00002D0FA4DA84208D14BF6FF752C408D8920
:101DB0004FF6FF7606EA85152C4384808283CD8812
:101DC000A0F84050038470BD828B4FF2FF331A405D
:101DD0008283828B4FF6FF7303EA01231A438283C7
:101DE0007047F0B50C461546002200210026078CEE
:101DF0004EF6FF7C07EA0C070784828B018C4FF6B6
:101E0000FF7707EA043640F6FF473A404FF6FF7780
:101E100007EA05273A434FF6FF7707EA03373A43C5
:101E2000D94FB8420ED0D94FB8420BD0B0F1804F45
:101E300008D0D74FB84205D0D64FB84202D0D64FBF
:101E4000B84206D14DF6FF77394046F48057394302
:101E500005E047F6FF57394044F480573943828301
:101E60000184F0BD828B4FF6F3731A408283828B1C
:101E70000A4382837047F0B50C46154600220021C4
:101E80000026078C4FF6FF6C07EA0C070784828B4D
:101E9000018C4FF6FF7707EA04264FF60C773A409D
:101EA0004FF6FF7707EA03172F433A43B64FB8427E
:101EB0000ED0B64FB8420BD0B0F1804F08D0B44F1F
:101EC000B84205D0B34FB84202D0B34FB84206D1A2
:101ED0004FF6FF57394046F48077394305E04FF21B
:101EE000FF57394044F48077394382830184F0BD41
:101EF000028B4FF2FF331A400283028B4FF6FF73BF
:101F000003EA01231A4302837047F0B50C461546D5
:101F1000002200210026078C4FF6EF7C07EA0C0711
:101F20000784028B018C4FF6FF7707EA041640F610
:101F3000FF473A404FF6FF7707EA03373A434FF639
:101F4000FF7707EA05273A438F4FB8420ED08F4FED
:101F5000B8420BD0B0F1804F08D08D4FB84205D0B9
:101F60008C4FB84202D08C4FB84206D14FF6DF7783
:101F7000394046F01007394305E04FF65F773940A6
:101F800044F01007394302830184F0BD028B4FF601
:101F9000F3731A400283028B0A4302837047F0B541
:101FA0000C46154600220021068C4FF6FE773E4077
:101FB0000684028B018C4FF60C7632407E1C06EABA
:101FC00003162E433243704EB0420ED06F4EB042D5
:101FD0000BD0B0F1804F08D06D4EB04205D06D4EA1
:101FE000B04202D06C4EB04206D14FF6FD76314081
:101FF00044F00106314305E04FF6F576314044F0F8
:102000000106314302830184F0BD70B505460C46DC
:102010005D4885420ED05D4885420BD0B5F1804FBA
:1020200008D05B48854205D05A48854202D05A48BC
:10203000854200D100E000BF208850B92389A288E2
:1020400061882846FFF7ABFFE1882846FFF79EFF2F
:1020500025E0208804280AD12389A288618828469F
:10206000FFF753FFE1882846FFF742FF17E020887B
:1020700008280AD12389A28861882846FFF7FBFE39
:10208000E1882846FFF7EEFE09E02389A2886188EF
:102090002846FFF7A6FEE1882846FFF795FE70BDAB
:1020A0002DE9F04105460C4600260127608808B955
:1020B000022600E00026A088012801D1022700E0C6
:1020C00001272088A0B92389A28861882846FFF7C4
:1020D00066FFE1882846FFF759FF23893A463146D3
:1020E0002846FFF712FFE1882846FFF701FF13E0BB
:1020F0002389A28861882846FFF707FFE1882846E0
:10210000FFF7F6FE23893A4631462846FFF747FF98
:10211000E1882846FFF73AFFBDE8F0810A884B883E
:102120001A438B881A43CB881A430B891A434B896D
:102130001A438B891A43A0F8442070474FF6FF7169
:10214000818000210180C18041800172704700219F
:10215000018041808180C180018141818181C18173
:102160007047002101804180012181800021C180D0
:10217000018170470021018041808180C1800181FF
:102180004181818170470000002C014000340140F2
:102190000004004000080040000C004021B102880B
:1021A00042F00102028004E002884FF6FE731A40FA
:1021B0000280704731B1B0F8442042F40042A0F8E8
:1021C000442005E0B0F84420C2F30E02A0F84420F9
:1021D00070471AB183890B43838102E083898B4363
:1021E000838170478182704741EA0203A0F848303A
:1021F00070471AB183890B43838102E083898B4343
:102200008381704701894FF6F87211400181704750
:102210000A46002101894FF68F731940114301814D
:10222000704730B504460D4629462046FFF7F0FFBB
:10223000208940F00700208130BD2DE9F04104469F
:102240000D4616461F46602D06D13B4601223146FB
:102250002046FFF75AFE05E03B4601223146204664
:10226000FFF79DFE29462046FFF7D2FF208940F068
:1022700007002081BDE8F08130B50C4600210189BE
:10228000C9B24FF6FF7505EA0325154325432943D7
:10229000018130BD2DE9F04105460E4617469846AE
:1022A000002443463A4631462846FFF7E5FF2C898D
:1022B0004FF6F870044044F007044FF68F70044066
:1022C00044F070042C81BDE8F081F0B504460D4661
:1022D00016461F463B46324629462046FFF7CCFFAE
:1022E000208940F480402081F0BD018582827047C2
:1022F0000A46002101884FF68F731940114301806F
:102300007047F0B50C4615461E46002100220023FA
:102310000189028B038C4FF6F877394021434FF641
:10232000FC473A4040F201173A434FF6DD773B4015
:102330004FF6FF7707EA06172F433B4301810283DD
:102340000384F0BD0A460021018B4FF68F731940BC
:102350001143018370470A460021018B48F6FF7341
:1023600019404FF6FF7303EA0223194301837047B4
:102370000A460021818B4FF68F73194011438183E8
:1023800070470A460021818B48F6FF7319404FF6CB
:10239000FF7303EA022319438183704721B1028846
:1023A00042F08002028004E002884FF67F731A40F8
:1023B0000280704721B1828842F00402828004E0EA
:1023C00082884FF6FB731A408280704721B1828861
:1023D00042F00802828004E082884FF6F7731A40C8
:1023E0008280704721B1828842F00102828004E03D
:1023F00082884FF6FE731A40828070470A46002199
:10240000018B4FF6F77319401143018370470A4659
:102410000021018B4FF2FF7319404FF6FF7303EA5F
:1024200002231943018370470A460021818B4FF62E
:10243000F77319401143818370470A460021818B4D
:102440004FF2FF7319404FF6FF7303EA022319435B
:10245000818370470A460021018B4FF6FB731940B8
:102460001143018370470A460021018B4FF6FF3369
:1024700019404FF6FF7303EA0223194301837047A3
:102480000A460021818B4FF6FB731940114381836B
:1024900070470A460021818B4FF6FF3319404FF6F3
:1024A000FF7303EA02231943818370470A46002120
:1024B000018B4FF67F7319401143018370470A4621
:1024C0000021018BC1F30E014FF6FF7303EA0223D3
:1024D0001943018370470A460021818B4FF67F73B1
:1024E00019401143818370470A460021818BC1F353
:1024F0000E014FF6FF7303EA0223194381837047ED
:102500000A460021018C4FF6FD73194011430184E6
:1025100070470A460021018C4FF6F77319401143AA
:10252000018470470A460021018C4FF6DF73194081
:102530004FF6FF7303EA02131943018470470A46FA
:102540000021018C4FF67F7319404FF6FF7303EAA9
:1025500002131943018470470A460021018C4FF68B
:10256000FF5319404FF6FF7303EA02231943018416
:1025700070470A460021018C4FF2FF7319404FF655
:10258000FF7303EA02231943018470470A460021BE
:10259000018C4DF6FF7319404FF6FF7303EA0233C7
:1025A00019430184704730B5002301248C40A3B245
:1025B000048C9C430484048C02FA01F5ADB22C43D4
:1025C000048430BD30B5002304248C40A3B2048CB5
:1025D0009C430484048C02FA01F5ADB22C430484BC
:1025E00030BD70B503460020002418461830012580
:1025F0008D40ACB21D8CA5431D8409B1082909D1B9
:1026000000EB6100056825F070050560056815435D
:1026100005600EE00D1FC5F34E052844056825F43E
:10262000E045056005684FF6FF7606EA0226354369
:10263000056070BD21B1028842F00202028004E010
:1026400002884FF6FD731A400280704721B102885C
:1026500042F00402028004E002884FF6FB731A4045
:102660000280704721B1828842F08002828004E0BB
:1026700082884FF67F731A408280704702884FF637
:10268000F7731A40028002880A43028070478288EA
:102690004FF68F731A40828082880A438280704787
:1026A00002894FF6F8731A40028102890A430281B7
:1026B000704702894FF67F731A40028102890A43EC
:1026C0000281704781847047818570478186704799
:1026D0000187704781877047A0F8401070470288D3
:1026E0004FF6FF431A40028002880A430280704777
:1026F0000146888E70470146088F70470146888FD3
:1027000070470146B1F8400070470146888C704719
:102710000146088D704702460020138A0B400BB11A
:10272000012000E000207047CA430282704730B5A4
:102730000246002000230024158A05EA010395893A
:1027400005EA010413B10CB1012000E0002030BD06
:10275000CA4302827047000010B50446FB48844219
:1027600009D101218803FFF79FF800214FF4804031
:10277000FFF79AF832E0F648844209D10121480473
:10278000FFF79FF800214FF40030FFF79AF825E09B
:10279000F048844209D101218804FFF792F8002112
:1027A0004FF48020FFF78DF818E0EB48844209D100
:1027B0000121C804FFF785F800214FF40020FFF73E
:1027C00080F80BE0E548844208D101210805FFF7B5
:1027D00078F800214FF48010FFF773F810BD2DE951
:1027E000F04786B005460E460024A24600BFA1462B
:1027F0000027B08900B100BF2F462C8A4CF6FF702D
:102800000440F08804432C82AC894EF6F310044057
:10281000B08831890843718908430443AC81AC8A8C
:102820004FF6FF400440B0890443AC8201A8FEF794
:10283000B4FFC648874202D1DDF810A001E0DDF800
:102840000CA0A88900F4004040B10AEBCA0000EBDC
:102850000A1031684900B0FBF1F807E00AEBCA0042
:1028600000EB0A1031688900B0FBF1F86420B8FB76
:10287000F0F004012009642101FB1089A88900F40B
:10288000004040B1322000EBC900B0FBF1F000F095
:102890000700044308E0322000EB09106421B0FB7C
:1028A000F1F000F00F0004432C8106B0BDE8F08782
:1028B0004FF41651016000218180C18001810C21FB
:1028C000418100218181704710B502460020108AA5
:1028D0004FF2FF0318400B884C8823438C88234316
:1028E000CC8823431843108210BD00210180418011
:1028F0008180C180704721B1828942F40052828177
:1029000004E082894DF6FF731A4082817047F0B56A
:102910000346002400260025002040F66A17B9422D
:1029200000D100BF1846C1F3421401F01F06012771
:1029300007FA06F5012C01D10C3004E0022C01D17C
:10294000103000E014301AB107682F43076002E02E
:102950000768AF430760F0BD1AB1838A0B438382D7
:1029600002E0838A8B4383827047028A4FF6F073BA
:102970001A400282028A0A430282704782894FF219
:10298000FF731A40828182890A438281704721B194
:10299000828942F00202828104E082894FF6FD734F
:1029A0001A4082817047028A4FF6DF731A40028212
:1029B000028A0A430282704721B1028A42F48042AD
:1029C000028204E0028A4BF6FF731A4002827047CB
:1029D000C1F308028280704701468888C0F308006E
:1029E0007047818941F0010181817047028BD2B229
:1029F0000283028B42EA012202837047028B02F4B7
:102A00007F420283028B0A430283704721B1828A8C
:102A100042F02002828204E0828A4FF6DF731A407D
:102A20008282704721B1828A42F01002828204E0E1
:102A3000828A4FF6EF731A408282704721B1828AF0
:102A400042F00802828204E0828A4FF6F7731A404D
:102A50008282704721B1828942F40042828103E080
:102A60008289C2F30E028281704721B1828A42F4C8
:102A70000062828204E0828A4FF2FF731A408282EF
:102A80007047828A4FF6FB731A408282828A0A4319
:102A90008282704721B1828A42F00202828204E07F
:102AA000828A4FF6FD731A408282704702460020E8
:102AB000B1F5007F00D100BF13880B400BB101209E
:102AC00000E00020704701F40072B2F5007F00D1F1
:102AD00000BFCA430280704770B50246002400233D
:102AE0000025002040F66A16B14200D100BFC1F3B4
:102AF000421501F01F03012606FA03F3012D02D14E
:102B00009689334006E0022D02D1168A334001E057
:102B1000968A33400C12012606FA04F416883440D3
:102B200013B10CB1012000E0002070BD10B50022EF
:102B3000002340F66A14A14200D100BF0A1201240A
:102B40009440A3B2DC43048010BD00000038014073
:102B50000044004000480040004C0040005000404D
:102B60000648804706480047FEE7FEE7FEE7FEE727
:102B7000FEE7FEE7FEE7FEE7FEE7FEE723020008CA
:102B80003101000808B500F001FA00F087FA00F002
:102B900069FD00F033FF00F0CBFA01F0EFF94FF6DA
:102BA000FF704FF4A073F02200210090084600F05F
:102BB00063FD00234FA23C21282000F04EFE00239D
:102BC0004FA25A21282000F048FE00234FA26E2178
:102BD000282000F042FE00234FA28C21282000F084
:102BE0003CFE85E000204D4908604D4908604D4994
:102BF00008604D4908802AE04B48008800EB8000BF
:102C00004A4931F810004A49474A128841F82200DF
:102C10004548008800EB8000401C444931F8100012
:102C20004449414A128841F822003F48008800EB9D
:102C30008000801C3D4931F810003F493A4A128813
:102C400041F8220038480088401C3749088036483F
:102C50000088FF28D0DD4FF480723649374801F0F4
:102C6000ADF94FF480723249354801F0A7F9334984
:102C7000344801F00DF8334801F072F83249086029
:102C80002E4801F09FF8314908602D4801F09AF86C
:102C90002F490860084602682C4801682A480068E5
:102CA00001F0C1F82B490860002327483C21026845
:102CB000782000F046FE2548006801F0F2FE84B25C
:102CC000002322465A21782000F0E5FD20480068C4
:102CD00001F0E7FE84B2002322466E21782000F046
:102CE000DAFD00231B488C210268782000F029FEC1
:102CF00078E7000049696E5F426173653A00000041
:102D000049696E5F50686173653A000056696E5F8D
:102D100050686173653A000050463A004000002058
:102D200044000020480000202C000020901C0020BF
:102D300090000020900C002090180020901000209F
:102D40009004002090140020300000203400002067
:102D5000380000203C000020704700BFFEE700BFA5
:102D6000FEE700BFFEE700BFFEE770477047704711
:102D700010B500F0CBF910BD10B540F225517048E8
:102D8000FFF7AAFEE0B16E48FFF726FE6D49087016
:102D9000084600786C496D4A127888546B48007870
:102DA000401C6A49087008460078082808D10022AB
:102DB00040F225516248FFF7AAFD012064490870DE
:102DC00010BD70B502216348FFF7B1FC01283ED168
:102DD00002216048FFF7BCFC5F48008840B95D48AD
:102DE000343000885D49088001205B4908802EE06E
:102DF0005948008801282AD156483430008858495B
:102E000008800846008855490988884207DD5448EB
:102E1000008852490988401A5249086009E04F4821
:102E200000884FF6FF71081A4D49098808444D493A
:102E300008604D4800686421B0FBF1F04949096819
:102E4000B0FBF1F0494908600020434908800421A3
:102E50004048FFF76CFC01283ED104213D48FFF7B4
:102E600077FC4348008840B93A48383000884149E7
:102E7000088001203E4908802EE03D480088012856
:102E80002AD13448383000883B49088008460088F9
:102E900038490988884207DD37480088354909885C
:102EA000401A3649086009E0324800884FF6FF7141
:102EB000081A314909880844304908602A480068DE
:102EC0006421B0FBF1F02D490968B0FBF1F02C4909
:102ED0000860002026490880264800881F49098884
:102EE000884207DD234800881C490988401A254983
:102EF000086006E0194800881E490988401A2149DF
:102F00000860204800681D490968B0FBF1F201FB28
:102F100012001C4908601948006801F097FD054639
:102F20001848006801F092FD0646294601F0BFFBF3
:102F300004464FF07E5101F085FB1349086070BDD7
:102F4000003801404E000020800000208800002052
:102F50008900002000080040580000205000002098
:102F6000520000205C000020000000206C000020C7
:102F70005A0000205400002056000020600000206D
:102F800070000020740000207800002008B50121A6
:102F90008820FEF76FFC01211420FEF76BFC012056
:102FA000ADF8000003208DF8020010208DF803001A
:102FB00069463648FEF7A2F94FF4C070ADF800003C
:102FC00069463348FEF79AF90120ADF80000482021
:102FD0008DF8030069462F48FEF790F94FF4005032
:102FE000ADF8000069462C48FEF788F908BD70B5B9
:102FF0000646012E02D1254C012508E0022E02D101
:10300000234C802503E0022E01D1214CA515294631
:103010002046FEF722FA70BD70B50646012E02D199
:103020001A4C012508E0022E02D1194C802503E03C
:10303000022E01D1164CA51529462046FEF70BFAA3
:1030400070BD70B50446012C02D1124D012603E07B
:10305000022C01D1104D260331462846FEF7E1F936
:1030600090B90A2000F048F831462846FEF7D9F911
:1030700040B900BF31462846FEF7D3F90028F9D001
:10308000012070BD0020FCE70020FAE7000C0140A1
:10309000001C0140000801400010014030B52048EC
:1030A00000684FF47A72B0FBF2F1B1F1807F01D386
:1030B00001201DE021F07F40401E4FF0E0225061D2
:1030C00050170F22002807DA13071D0E154B00F0CA
:1030D0000F04241F1D5503E013071C0E124B1C5434
:1030E00000BF00204FF0E022906107201061002017
:1030F00008B100BFFEE730BD01B50C49009808607B
:1031000000BF0A4800680028FBD108BD07480068D6
:1031100020B106480068401E04490860704700005E
:103120000000002018ED00E000E400E07C0000203A
:1031300000B587B0012144F20400FEF79BFB4FF479
:103140008060ADF8180004208DF81B0006A96A48BD
:10315000FEF7D4F84FF40070ADF8180003208DF896
:103160001A0018208DF81B0006A96348FEF7C6F860
:103170004FF4E13001900020ADF80800ADF80A00EE
:10318000ADF80C00ADF810000C20ADF80E0001A950
:103190005A48FFF724FB012240F225515748FFF718
:1031A000B6FB01215548FFF7A6FB4FF4E060FDF7A1
:1031B000B9F825208DF8140000208DF815008DF841
:1031C000160001208DF8170005A8FDF7B0F807B02C
:1031D00000BD70B504460D46E1B24848FFF7F8FB64
:1031E00000BF40214548FFF761FC0028F9D0204688
:1031F00070BD10B500244248007808B9012010BD08
:1032000000240CE03F490A5D04EB4401490001F150
:1032100064000023C82100F0E9FA601CC4B2082C45
:10322000F0DB002434E0082C2FD2DFE804F0040B9C
:103230001219211A22233348005D532801D002209D
:10324000DDE722E02F48005D452801D00220D6E7C7
:103250001BE02C48005D542801D00220CFE714E089
:1032600000BF2848005D3A2801D00220C7E70CE0E3
:1032700000BF00BF2348005D302803DB2148005D0C
:10328000392801DD0220BAE700BF00BF601CC4B2CC
:10329000082CC8DB1B48007930381B4908701948D6
:1032A000C079303817498979303901EB810100EB59
:1032B00041001649087014480078012803DB1248C1
:1032C0000078022801DD032099E7104800780228E1
:1032D00003DB0E4800780A2801DD04208FE7002078
:1032E0000B49087006490870012240F22551034835
:1032F000FFF70DFB002082E7000801400038014085
:1033000089000020800000208A0000208B0000201F
:103310008800002001B502E00098401E009000984F
:103320000028F9D108BD08B501210802FEF795FA79
:1033300001214FF4F470FEF79DFA10208DF8030080
:1033400003208DF802000220ADF800006946FE4817
:10335000FDF7D4FF4FF40060ADF800006946FB486C
:10336000FDF7CCFF03208DF8020018208DF8030034
:103370004CF20370ADF800006946F548FDF7BEFF5A
:103380004FF68070ADF800006946F248FDF7B6FFD1
:103390001020ADF800006946ED48FDF7AFFF202092
:1033A000ADF800006946EA48FDF7A8FF4FF48050E9
:1033B000ADF800006946E548FDF7A0FF0420ADF830
:1033C00000006946E348FDF799FF0221DE48FEF759
:1033D00044F808BD00B597B002200190002002908B
:1033E0000520039000200490059006904FF0805037
:1033F0000790062008900020099008200A901020CD
:103400000B9000200C900E900F9010904FF4805075
:103410001190002012901390149001A8159016900E
:1034200008A8FDF751FC01210620FDF7B5FD17B0F6
:1034300000BD10B54FF40061C448FEF70EF8C64851
:10344000FFF768FF4FF40061C048FEF704F8C24878
:10345000FFF760FF10BD00B5CF204FF0D8410880C6
:1034600000204FF0DA410880812008803020088059
:10347000ED204FF0D841088064204FF0DA410880F9
:10348000032008801220088081200880E8204FF067
:10349000D841088085204FF0DA410880102008804C
:1034A00078200880CB204FF0D841088039204FF099
:1034B000DA4108802C200880002008803420088011
:1034C00002200880F7204FF0D841088020204FF0DC
:1034D000DA410880EA204FF0D841088000204FF000
:1034E000DA4108800880B1204FF0D84108800020E0
:1034F0004FF0DA4108801B200880B6204106088082
:103500000A204FF0DA410880A2200880C0204FF046
:10351000D841088035204FF0DA410880C1204FF0B3
:10352000D841088011204FF0DA410880C5204FF0C3
:10353000D841088045204FF0DA4108800880C72034
:103540004FF0D8410880A2204FF0DA410880F220E5
:103550004FF0D841088000204FF0DA410880262043
:103560004FF0D841088001204FF0DA410880E02078
:103570004FF0D84108800F204FF0DA410880262014
:103580000880242008800B2008800E200880092055
:10359000088054200880A8200880462008800C203D
:1035A000088017200880092008800F200880072045
:1035B000088000200880E1204FF0D84108800020DA
:1035C0004FF0DA410880192008801B200880042071
:1035D000088010200880072008802A2008804720C3
:1035E0000880392008800320088006200880088091
:1035F00030200880382008800F20088036204106BF
:103600000880C8204FF0DA4108802A204FF0D841C6
:10361000088000204FF0DA41088008800880EF2001
:1036200008802B204FF0D841088000204FF0DA416D
:1036300008800880012008803F2008803A204FF051
:10364000D841088055204FF0DA41088011204FF012
:10365000D84108804048FFF75DFE29204FF0D8414F
:10366000088000BD10B5FFF75EFEFFF7B3FEFFF761
:10367000E0FEFFF7F0FE10BDF0B5059D00242A2600
:103680004FF0D8473E8006124FF0DA473E80C6B270
:103690003E808618761EC6F30F263E808618761E5C
:1036A000F6B23E802B264FF0D8473E800E124FF0E8
:1036B000DA473E80CEB23E80CE18761EC6F30F2685
:1036C0003E80CE18761EF6B23E802C264FF0D847AC
:1036D0003E8000BF03E04FF0DA463580641C02FBF9
:1036E00003F6A642F7D8F0BD2A224FF0D8431A803D
:1036F00002124FF0DA431A80C2B21A8002121A8004
:10370000C2B21A802B224FF0D8431A800A124FF00F
:10371000DA431A80CAB21A800A121A80CAB21A8010
:10372000704730B52A244FF0D8452C8004124FF052
:10373000DA452C80C4B22C808418641EC4F30F2494
:103740002C808418641E09E0000C01400020014018
:103750000014014000180140FCBF0200E4B22C80BC
:103760002B244FF0D8452C800C124FF0DA452C80DA
:10377000CCB22C80CC18641EC4F30F242C80CC183F
:10378000641EE4B22C8030BD70B505460E4614466A
:1037900031462846FFF7A8FF2C204FF0D84108807B
:1037A0004FF0DA40048070BD10B5002100220023E4
:1037B0004FF0DA400188018803880288C812C002ED
:1037C000941240EA441040EAE32010BD70B504466C
:1037D0000D4629462046FFF787FF2E204FF0D8419F
:1037E0000880FFF7E1FF0646304670BD2DE9F04F37
:1037F00081468A4615461E46A5F120001FFA80FB29
:103800000C23062251464846FFF78BFF2C204FF031
:10381000D841088000241CE00BEB4B00754901EBFC
:10382000800010F8048000270FE008F0010018B1B4
:103830004FF0DA40068004E04FF6FF704FF0DA41B7
:1038400008804FEA6808781C87B2062FEDDB601C01
:1038500084B20C2CE0DBBDE8F08FF0B505460E46D7
:1038600014461F4613E0EA2D03DD002506F10C0087
:1038700086B2B6F59A7F01DD0025002622783B4608
:1038800031462846FFF7B2FFA81D85B2641C207898
:103890000028E8D1F0BD2DE9F047064688461446D9
:1038A00099460027002525463DB94B463022414622
:1038B0003046FFF79BFFBDE8F08703E00A20B5FB29
:1038C000F0F57F1C002DF9D115E00A20B4FBF0F1D2
:1038D00000FB114000F1300A39467F1E062202FB30
:1038E0000161891F88B24B4652464146FFF77EFF71
:1038F0000A20B4FBF0F4002CE7D100BFDBE72DE990
:10390000F04104460E4615461F460A20B5FBF0F06E
:10391000303000F0FF08A0B23B4642463146FFF788
:1039200065FF0A20B5FBF0F100FB115000F13008F3
:10393000A11D88B23B4642463146FFF757FFBDE81E
:10394000F0812DE9F047054688461746994600263E
:10395000002406E04FF07E51384600F070FE074626
:10396000641C0021384601F0DFF8F3D94FF07E5196
:10397000384600F012FE0746641E04F13001CAB258
:10398000A8B24B464146FFF731FFA91D88B24B460E
:103990002E224146FFF72AFF0024002626E0164982
:1039A000384600F052FE074606E04FF07E5138469A
:1039B00000F045FE0746641C0021384601F0B4F8CB
:1039C000F3D94FF07E51384600F0E7FD0746641EFC
:1039D00004F13001CAB2B11C062303FB015188B2C5
:1039E0004B464146FFF702FF0024761C032ED6DB30
:1039F000BDE8F087DC5900080000204100B599B00F
:103A00004FF44040FDF79AFE01210846FDF725FFDF
:103A100001214FF40570FDF72DFF0220ADF82000C5
:103A200000208DF8230008A95548FDF767FC062003
:103A3000ADF8200008A95348FDF760FC05A8FEF783
:103A40007DFB1820ADF81800E020ADF81400002030
:103A5000ADF81A00ADF8160005A94B48FEF742F87C
:103A60006020ADF804000120ADF806007F20ADF81D
:103A70000A000220ADF80C0001A94348FEF76FF8D8
:103A80004248FCF7ABFF4248099042480A900020A8
:103A90000B904FF4A0600C9000200D9080200E90B1
:103AA00040000F9080001090202011900002129092
:103AB0000020139009A93548FDF732F80020149032
:103AC00001208DF854008DF855004FF460201690B9
:103AD0000020179005208DF8600014A92C484C3860
:103AE000FCF7B5FC07230122114629484C38FCF7A6
:103AF00046FD07230222114625484C38FCF73FFDBE
:103B0000052303220B2122484C38FCF738FD0523FE
:103B100004220B211E484C38FCF731FD05231A46C0
:103B20000B211B484C38FCF72AFD012118484C3862
:103B3000FCF7C4FC012116484C38FCF7B4FC1448CF
:103B40004C38FCF7D2FC00BF11484C38FCF7D2FCD3
:103B50000028F9D10E484C38FCF7D6FC00BF0C48C1
:103B60004C38FCF7D6FC0028F9D101210748FDF7B5
:103B700002F8012106484C38FCF7D5FC19B000BD0D
:103B80000010014000080140002C014008000240E4
:103B90004C240140901C00202DE9F0478AB081465A
:103BA00000242FE0204600F056FF0746AF4AB04BF6
:103BB00000F062FE0022AF4BCDE9000100F05CFE98
:103BC00005460022AC4B00F0C9FECDE9020101F030
:103BD0008FFE0022A94BCDE9040100F04DFE00222A
:103BE000A64BCDE9060100F0A0FDCDE9080100F0EB
:103BF0007FFF8246504600F03BFF000449F8240056
:103C0000601C84B2FF2CCDDD0AB0BDE8F0872DE941
:103C1000F0478CB08146002435E0204600F01BFFC1
:103C2000924A934BCDE9000100F026FE07460022A0
:103C3000904B00F021FE00228F4BCDE9020100F0F5
:103C40008DFE054600228E4B00F06FFDCDE904018C
:103C500001F04EFE0022894BCDE9060100F00CFE7A
:103C60000022864BCDE9080100F05FFDCDE90A0195
:103C700000F03EFF8246504600F0FAFE000449F88C
:103C80002400601C84B2FF2CC7DD0CB0BDE8F087B7
:103C90002DE9F04F8BB005460E4600245BE036F868
:103CA00024000FFA80F956F82400000C0FFA80FA6D
:103CB000484600F0C2FE4FF08741089000F0C5FC76
:103CC0004FF08E41099000F0F2FC0746504600F09C
:103CD000B4FE4FF08741089000F0B7FC4FF08E41E2
:103CE000099000F0E4FC80464146404600F0ADFCFF
:103CF00039460290384600F0A8FC0190029900F085
:103D00004CFC039000F0E1FECDE9040101F040FE1F
:103D100000225C4BCDE9060100F020FECDE9080150
:103D200000F0E6FE834654B94FF08E41584600F04D
:103D30008CFC099000F0B5FE45F8240009E04FF036
:103D40008F41584600F081FC099000F0AAFE45F82A
:103D50002400601CC4B2802CA1DB0BB0BDE8F08F46
:103D60002DE9F04F87B004464FF0000BD946CA4604
:103D7000D4F804B0012507E054F825A0BAF1140FD7
:103D800000D3D144681C85B2FF2DF5DD484600F014
:103D900062FECDE90201584600F05DFE07460022B2
:103DA000394B00F069FDCDE90001DDE9022300F0A7
:103DB000D5FDCDE9040100F09BFE0646304607B074
:103DC000BDE8F08F2DE9F04F87B08246BAF80400C5
:103DD0001FFA80FB4FF6FF71DAF8040001EA104089
:103DE0000590584600F037FE06460F46059800F04D
:103DF00032FE804632463B4601F06CFC0022234BEB
:103E0000CDE9000100F038FD184A0B3A204BCDE90E
:103E1000020100F0A3FD044600F06AFE049004983D
:103E200007B0BDE8F08F2DE9F74F86B08A4693467C
:103E30005946504600F003FC019000F046FECDE9E3
:103E4000020101F007FD04460D46069800F03DFE14
:103E5000064622462B4600F00FFD804600F048FE45
:103E60000490049809B0BDE8F08F00001C2D445464
:103E7000FB211940000049400000C94000709740F4
:103E800000002440000070400000F03F00806640C9
:103E9000FB21094000B585B001210420FDF7EAFCB3
:103EA00001214807FDF7F3FC3020ADF81000002099
:103EB0008DF8130004A93C48FDF720FA2420009057
:103EC000002001900220039069460020FCF7CBFC03
:103ED00069461020FCF7C7FC01210020FCF7E0FC3C
:103EE00001211020FCF7DCFC01211020FCF7E9FC8B
:103EF00005B000BD0EB501210846FDF7C8FC18202D
:103F0000ADF80400E120ADF800000020ADF8060097
:103F1000ADF8020069464FF08040FDF7E3FD202137
:103F20004806FEF7B4FB01218807FEF737F90EBDFE
:103F300000B58BB001210220FDF78FFC1B480090DB
:103F40001B48019010200290000103900020049073
:103F50008020059080000690800007902020089027
:103F60000002099000200A9069461248FCF7D8FD2B
:103F700001211048FCF7FFFD0BB000BD10B5002477
:103F8000FFF788FFFFF7B6FFFFF7D2FF00BF08E09B
:103F9000094830F8140000EB0040054941F82400BE
:103FA000641CFF2CF4D910BD0008014020740040AF
:103FB0009026002044040240505E00082DE9F04F96
:103FC0004FF0000C4FF0000301EB1C6EBEF90250E5
:103FD000BEF900400EF5807EBEF90290BEF9008069
:103FE0000EF5807EBEF90270BEF900600EF5807E8F
:103FF000BEF902B0BEF900A00EF5807ED044D944CF
:10400000A8EB4A0AA9EB4B0B4FEAA4044FEAA5051B
:1040100004EBA60405EBA705A4EB6606A5EB670772
:1040200004EBA80405EBA905A4EB6808A5EB690956
:1040300006EBAB06A7EBAA07A6EB6B0B07EB6A0A2E
:10404000458020F8044B478020F8046BA0F80290CC
:1040500020F8048BA0F802A020F804BB03F10103B0
:1040600093FAA3FC402BAFD1A0EB82014FF01003D9
:1040700012090FF2361000F1000006B403EB430CF6
:104080006144A2F5803202EB8332B1F90250B1F9FA
:104090000040A1EB0301B0F902B0B0F900A000F1BB
:1040A0000400A5EB040E0EFB0BFC0AEB4B0E05FB0C
:1040B0000ACB04FB0ECAB1F90250B1F90040A1EBE2
:1040C0000301B0F90290B0F9008000F10400A5EB03
:1040D000040E0EFB09FC08EB490E05FB08C904FBA6
:1040E0000EC8B1F90250B1F90040A1EB0301B0F9DB
:1040F0000270B0F9006000F10400A5EB040E0EFBA5
:1041000007FC06EB470E05FB06C704FB0EC6B1F91C
:104110000250B1F9004001F10001D044D944A8EBAC
:104120004A0AA9EB4B0B4FEAA4044FEAA50504EB9E
:10413000264405EB2745A4EBE636A5EBE73704EB71
:10414000284405EB2945A4EBE838A5EBE93906EB53
:104150002B46A7EB2A47A6EBEB3B07EBEA3A4D8051
:104160000C8019444F800E801944A1F80290A1F8E8
:1041700000801944A1F802A021F804BBB2F58032F6
:1041800083DA03EB430C6144A2F101025FEA024EC1
:1041900018BFA0EB0C007FF476AF06BC4FEA830398
:1041A00092087FF46AAFBDE8F08F00400000004045
:1041B0000000004000005DDD213BA3227E180000CE
:1041C000412D7EA5412D0000412D00C000405DDD48
:1041D00082E75DDD213B7EA5412D004000000040CF
:1041E000000000400000AA2A94126B3946064932AA
:1041F0007C0CA8118E2349327C0CA3227E1821F757
:104200007931AA2A9412A8118E235DDD213BA322C5
:104210007E180000412D95C6B13F461A2B1E58EE60
:104220003735BEB4C53EA8118E235DDD213B63A9A1
:104230007138DF089A28B7CDC53E7EA5412D000014
:10424000412D00C0004063A92B1E21F77931BEB477
:10425000C53EBEB47C0C58EE373561AC213B95C6EB
:10426000BAF9BAE571383BA737355DDD82E75DDD28
:10427000213B7EA5412D21F766D756D53F3D3BA773
:104280008E23A811C9CAB7CDC53E61AC7E18AA2A33
:10429000C1C295C6B13FBEB47C0C004000000040D6
:1042A0000000004000001E3BB504693E9201C83C7E
:1042B0002403EB356409C83C24036B3946066C3093
:1042C000060E1E3BB504EB356409AA2A94126B391D
:1042D000460649327C0CAE240917AF37D607882E24
:1042E0008D0F7E1E5D1BEB356409AA2A94122418DB
:1042F0008C1F1E34F10AB3269015A8118E23493263
:104300007C0CA3227E18140B60276C30060E7E1ED8
:104310005D1B7104FB2A882E8D0F461A2B1EC7FDCC
:104320005A2E9D2C1211FE15E72021F77931AA2A69
:104330009412A8118E2387F05334B2281314480D19
:10434000202602EAE536B3269015DF089A289CE37A
:104350002B39AE2409177104FB2A5DDD213BA32212
:104360007E180000412D4ED7C53C9320EF198FFBDE
:104370006C2F78D1153E7E1E5D1B21F77931E2CB83
:104380000F3F641CC61CB8F2683395C6B13F461A8D
:104390002B1E58EE373597C1FB3F24188C1F02EABD
:1043A000E536F0BCEC3FFE15E720BAE57138A6B85B
:1043B000853FD5133D2282E1DB39BEB4C53EA8114D
:1043C0008E235DDD213B40B1AF3D790FDA244DD91D
:1043D000423C2EAE423C480D202656D53F3D8EAB8A
:1043E000823A140B602778D1153E63A97138DF0833
:1043F0009A28B7CDC53EB1A71236A906CE2915CA4F
:104400004F3F78A668337104FB2A95C6B13FBCA51F
:1044100076303902212C38C3EC3F7EA5412D0000B7
:10442000412D00C00040BCA5CE29C7FD5A2EF0BCCE
:10443000EC3F78A620268FFB6C2F09BAB13FB1A7BD
:104440003D2257F976304DB74F3F63A92B1E21F718
:104450007931BEB4C53E8EABEF19ECF474325EB266
:10446000153E2EAE9015B8F268332DB03F3D40B1E9
:10447000121187F053342EAE423CBEB47C0C58EE81
:10448000373561AC213BA6B8D6072BEC1236C8AA4B
:10449000DB39F0BC240302EAE53663A9713897C121
:1044A0006EFEDCE7B03734A8E53695C6BAF9BAE552
:1044B00071383BA73735E2CB0FF59CE32B3978A653
:1044C000683378D173F082E1DB39EDA579314ED7CD
:1044D000EDEB6DDF823A99A56C2F5DDD82E75DDD46
:1044E000213B7EA5412D9CE33AE352DBB63B99A5E7
:1044F000FB2A02EA19DF4DD9423CEDA59A2887F044
:1045000026DB4ED7C53C78A6202621F766D756D5A0
:104510003F3D3BA78E23C7FDDFD363D3AF3D34A818
:10452000E720710494D078D1153E63A92B1E140B9B
:104530008CCD94CF723EC8AA5D1BA811C9CAB7CD55
:10454000C53E61AC7E18241850C8E2CB0F3F2EAE9A
:1045500090157E1E25C615CA4F3F2DB09412AE246D
:104560004AC451C8853F5EB28D0FAA2AC1C295C602
:10457000B13FBEB47C0C6C308EC1E2C4D43F4DB7A9
:104580006409EB35B1C038C3EC3F09BA46061E3B9F
:104590002CC097C1FB3FF0BC2403F0B480EA0102B9
:1045A000D40F4200B2EB410F02D202460846114638
:1045B0004A0042D0C30DDDB2C1F3C752AD1A202D5F
:1045C00035DAC1F3160141F4000204B15242C5F1DB
:1045D000200602FA06F12A411044B3EBD05F23D043
:1045E000C4B1012DA0EBC35009DCF0BC4FF0004278
:1045F00002EAC352DBB200F5000000F0C9BA400085
:1046000000F1807000EBC350A0F1807040EAD170DF
:10461000490009E0490841EAC071A0EBC35000F528
:104620000000400800EBC350F0BC00F0A8BA6142A3
:10463000012202EB4101001BF6E7F0BC704781F05C
:104640000041AAE780F00040A7E780EA010210B528
:1046500002F00043400022D04A001FD0010E01EBBF
:104660001261C0F35600C2F3560240F4000042F457
:104670000002A0FB022000047F39140400D0401C7B
:1046800050EA124001D44000491EC2B20C0604EBAD
:10469000D010401C4008802A02D003E0002010BD4A
:1046A00020F00100002900DA0020184310BD30B4CA
:1046B00080EA010202F0004530F0004221F00040A3
:1046C00013D090B1C30DD40DC2F31601C0F3160080
:1046D000E41A41F4000140F400027D34914201D318
:1046E000641C00E04900002C02DA30BC0020704756
:1046F0004FF400000023914201D3891A034340087C
:104700004FEA4101F7D151B1914202D14FF000413E
:1047100005E002D24FF0010101E06FF0010103EB6F
:10472000C450284430BC00F02ABA2DE9FE4F804620
:1047300081EA0300C00F0C46009021F0004123F0F5
:104740000045B8EB0200A94105D2404621469046FB
:104750001C460B46024623F00040104347D0270D6D
:10476000C7F30A00C3F30A510290401A019040288F
:104770006BDAC3F3130040F4801B0098924620B11B
:104780000023D2EB030A63EB0B0B01985946C0F1EF
:104790004002504600F0D2F906460D4650465946B2
:1047A000019A00F0DAF910EB08006141002487EA71
:1047B000115284EAE7731A4340D0009A62B3019A17
:1047C000012A4FEA075215DC001B61EB02014FF092
:1047D000004202EA0752CDE90042001C41F5801177
:1047E00032462B4600F011FA03B0BDE8F08F404688
:1047F0002146F9E7001B61EB0201001C41F5801323
:1048000000185B412018A2F5001747EB030140EAAE
:10481000D570B6196D4111E06D084FEA360645EACC
:10482000C0754FEA0752001B61EB0201001C41F505
:10483000801149084FEA30000019514132462B4699
:1048400003B0BDE8F04F00F0D1B90098012240005C
:104850000023D0EB020263EBE073009821464FEA9D
:10486000E074B8EB000061EB0401E9E783F000437A
:104870005BE781F0004158E72DE9FE4F81EA030430
:1048800004F0004421F0004100944FF0000B23F0AD
:10489000004350EA01045ED052EA03045BD0C3F344
:1048A0000A54C1F30A552C44A4F2F3340194A0FB3A
:1048B0000254C1F3130141F48011C3F3130343F411
:1048C000801301FB024400FB034E840A970A44EA6A
:1048D000815447EA8357A4FB076802958D0A05FBBC
:1048E00007854FEA932C04FB0C542705029D4FEAE1
:1048F000065847EA1637B5EB08056EEB070C870E2E
:10490000920E47EA811742EA8312A7FB0201B6EB37
:104910000B0164EB00042B0D43EA0C335E1844EBEF
:104920001C50DA465146E7FB0201C5F313044FEA77
:104930000B3343EA14534FEA0432019C43EA060363
:10494000A4F10C040294009CCDE900B400F05DF9E0
:1049500003B0BDE8F08F00200146F9E72DE9F04DE6
:1049600081EA030404F0004B21F0004514464FF0A7
:10497000000A23F0004150EA050220D054EA010267
:104980001DD0C5F30A570246C5F31303C1F3130044
:10499000C1F30A5640F4801543F48013A7EB0608D0
:1049A000101BD64608F2FD3873EB050002D308F160
:1049B000010801E092185B41B8F1000F03DA002012
:1049C0000146BDE8F08D00204FF480110646844674
:1049D0000EE0171B73EB050705D3121B63EB0503F2
:1049E00006434CEA010C49084FEA300092185B413B
:1049F00050EA0107EDD152EA030012D082EA040026
:104A000083EA0501084305D0101BAB4106D2012201
:104A1000002306E000224FF0004302E06FF00102A5
:104A200053101AEB06004CEB085110EB0A0041EB57
:104A30000B01BDE8F04D00F0D9B8C10F80EAE0707D
:104A40000844CA079623002100F0A2B8962300224A
:104A5000114600F09DB80EB540F23341029100219D
:104A6000CDE900110A460B4600F0CFF803B000BDB7
:104A700000F0004220F00040C10DC0F3160040F4E9
:104A800000007F2901DA00207047962903DCC1F17C
:104A90009601C84001E096398840002AF4D040428F
:104AA000704720F00040C10DC0F3160040F4000034
:104AB0007F2901DA00207047962903DCC1F19601B5
:104AC000C840704796398840704700F0004230F087
:104AD00000400AD0C10D01F56071C0F3160042EA32
:104AE0000151C2084007114370470020014670473A
:104AF00001F0004330B421F0004150EA010206D039
:104B00000A0DA2F56072C1F31301002A02DC30BC69
:104B100000207047440F44EAC104C100E01830BCD3
:104B200000EBC25000F02BB8002801DBC0F10040C0
:104B3000002901DBC1F1004188427047202A04DBD3
:104B4000203A00FA02F1002070479140C2F12003A0
:104B500020FA03F3194390407047202A06DBCB1755
:104B6000203A41FA02F043EAE07306E041FA02F328
:104B7000D040C2F1200291400843194670470029F5
:104B8000A8BF7047401C490008BF20F001007047D3
:104B900010B4B0FA80FC00FA0CF050EA010404BF33
:104BA00010BC704749B1CCF1200421FA04F411FA89
:104BB0000CF118BF012121430843A3EB0C01CB1DCD
:104BC0004FEA00614FEA102042BF002010BC70473E
:104BD00000EBC35010440029A4BF10BC7047401C18
:104BE000490008BF20F0010010BC704710B5141E2A
:104BF00073F1000408DA401C41F1000192185B4196
:104C00001A4301D120F0010010BD2DE9F04D92466C
:104C10009B4611B1B1FA81F202E0B0FA80F2203283
:104C20009046FFF78BFF04460F4640EA0A0041EA30
:104C30000B0153465A46084313D0114653EA01006C
:104C400019D0C8F14002504600F090F805460E46D3
:104C5000504659464246FFF771FF084305D00120F0
:104C600004E020463946BDE8F08D0020054346EAC1
:104C7000E0762C4337430A986305E40AA0EB08006A
:104C80000022FD0A44EA47540A3002D500200146BA
:104C9000E9E7010510196941DDE908450019694195
:104CA000BDE8F04DA2E72DE9F04D00231A461B1A8E
:104CB0008A4103DB00200146BDE8F08DC1F30A52B2
:104CC000C1F3130141F480154FF0000BD10702D15D
:104CD00000186D41521E0027044640F2FF1138466D
:104CE00001EB620A3E468046024600204FF48011E6
:104CF00000F03CF8C2197141BB1846EB0100B4EB5F
:104D0000030C75EB000C04D3E41A65EB00051746A1
:104D10000E46241908F101006D4180463428E3DD78
:104D2000F91946EB0600091BA84103D24FF0FF32E8
:104D3000134601E0002213461BEB070046EB0A5125
:104D4000BDE8F04DFFF752BF064C074D06E0E068A6
:104D500040F0010394E8070098471034AC42F6D3C2
:104D6000FBF7EAF91062000830620008202A04DB31
:104D7000203A21FA02F00021704721FA02F3D040D4
:104D8000C2F12002914008431946704770B521F0E6
:104D9000004303430CD0C1F30A550024D5EB0405AE
:104DA00064EB0403D617AD1AB34102DB00200146C1
:104DB00070BD201841EB025170BD0EB5C10F80EAE5
:104DC000E0700844CA07002140F233438DE80E002A
:104DD0000A460B46FFF719FF03B000BD70B5C1F3DB
:104DE0000A5201F000450024C1F3130140F2FF33E1
:104DF00041F480119A4201DA002070BD40F2334341
:104E00009A42A2F2334203DC5242FFF7AFFF00E0C6
:104E100090402C43F1D0404270BD490050EAC1207F
:104E200018BF04204A0D18BF40F0010040F2FF7285
:104E3000B2EB515F08BF40F00200012808BF052017
:104E4000704700002DE9F74F144694B00021C4E9E3
:104E500002111599079121F00045C9498D4206DCE0
:104E60001599C4E9000117B00020BDE8F08FC549CD
:104E7000DFF814A3A9423CDD0799C44E0029C44FB2
:104E8000C44A1599534619DDFFF7F0FC554506D085
:104E9000C14AC24BFFF7EAFCC4E900010AE04FF047
:104EA000D352BE4BFFF7E2FC32463B46FFF7DEFC37
:104EB000C4E9000117B00120BDE8F08FFFF735FC11
:104EC000554506D0B44AB54BFFF72FFCC4E90001A5
:104ED0000AE04FF0D352B14BFFF727FC32463B4676
:104EE000FFF723FCC4E9000117B04FF0FF30BDE825
:104EF000F08FAB49A942159978DB21F00041834638
:104F00008846A84AA84BFFF7B7FC0022A74BFFF73B
:104F10000CFCFFF763FF0990FFF74FFF06460F46B3
:104F20009C4A5346FFF7A8FC43465A46FFF7A1FCAC
:104F300080468A46984A994B30463946FFF79CFC92
:104F40002A0D01250B9242465346FFF792FC032D92
:104F5000C4E9000139D00B98C1F30A51401A05EB9E
:104F600045111139814230DA9148C346784400EB4B
:104F70000510CDF80CA00C90D0E90023304639463E
:104F8000FFF77AFC02460B460491069058460399B7
:104F9000FFF76CFC80468A4602460B46584603994A
:104FA000FFF764FC049B069AFFF760FC83460C98AD
:104FB00003913946D0E902233046FFF75DFC5A469B
:104FC000039BFFF753FC6D1CBDE707980028A2BFA9
:104FD000099817B0BDE8F08F616881F00041616009
:104FE000099817B04042BDE8F08FFFE78446159856
:104FF000C1F31301C0F30A50A0F2F5304FEA601874
:1050000000F01F06C6F120001390002006900790C4
:1050100041F4801E05206D4676B1664A08EB00011A
:105020007A4452F8213002EB8101B3404A68139967
:1050300022FA01F1194305E05F4908EB00027944C7
:1050400051F82210A1FB0E27A1FB0C131A449A421F
:1050500034BF0123002303EB070A05EB8003D3E9E8
:1050600001B70F448F4234BF0121002193448B4488
:1050700011B1934502D903E0934501D2012100E02B
:105080000021C3E901B7514445F82010011EA0F1E9
:105090000100C1DC0298059F00F10050800F1290C2
:1050A0000298DDE903568000FFF787FE8346284615
:1050B0000D91FFF7D0FC6FF01D02FFF767FECDE901
:1050C0000E013046FFF7C7FC6FF03D02FFF75EFEB2
:1050D00080468A463846FFF7BEFC6FF05D02FFF758
:1050E00055FE0746424653461191FFF71EFBDDE988
:1050F0000E23FFF71AFB5A460D9BFFF716FB002500
:105100000E465A4628460D9BFFF7B0FBDDE90E23FD
:10511000FFF7ACFB42465346FFF7A8FB3A46119B0C
:10512000FFF7A7FBDFF898A0244A5346FFF7A4FB3C
:1051300007468846234A244B31462846FFF79CFB06
:105140003A464346FFF7F1FA074688464FF0A84231
:10515000534631462846FFF78FFB3A464346FFF752
:10516000E4FA159A12F0004F04D0129A81F000412F
:1051700052421292C4E90001129817B0BDE8F08FB4
:10518000FB21E93F7CD90240FB21F93F7370032EDC
:105190008A19A33B000040543163621A61B4D03DC8
:1051A000FB21394183C8C96D305FE43F0000E03F17
:1051B000B01100002C1100000E110000182D4454F5
:1051C000FB21F93D3326A611460B113C2DE9FF4D7D
:1051D00021F0004807460C46B8F1795F08DAFFF77E
:1051E000FDFD002801BF0020324904B0BDE8F08D6C
:1051F0003A46234610461946FFF73EFB054602464F
:105200002D480E460B460621784400F05DF82A46EC
:105210003346FFF731FBDDE9022382468B463846F1
:105220002146FFF729FB04460F4652465B462846B7
:105230003146FFF721FB22463B46FFF717FB0746A7
:105240008A464FF0FF3228463146FFF79FFD1B4A42
:1052500090450ADA3A465346FFF708FB04B00022AD
:10526000BDE8F04D134BFFF704BB154A4245A8BFFC
:10527000A8F500154FF00004B8BF124D22462B468A
:10528000FFF7F4FA0646884622462B4600200949D5
:10529000FFF7ECFA04460D463A465346304641467F
:1052A000FFF7E4FA04B022462B46BDE8F04DFFF7C5
:1052B000E0BA00000000F03FDC0E00003333D33FC3
:1052C0000000E93F0000D23F2DE9F0414F1E00EB06
:1052D000C7010446D1E9000115461E4637F0060213
:1052E0000DD02A463346FFF7C7FA7F1E04EBC703EB
:1052F000D3E90023FFF719FA37F00602F1D1022FA4
:1053000025D0042F13D0062F18BFBDE8F0812A4600
:105310003346FFF7B1FAD4E90A23FFF706FA2A4623
:105320003346FFF7A9FAD4E90823FFF7FEF92A4626
:105330003346FFF7A1FAD4E90623FFF7F6F92A4628
:105340003346FFF799FAD4E90423FFF7EEF92A462A
:105350003346FFF791FAD4E90223FFF7E6F92A462C
:105360003346FFF789FAD4E90023BDE8F041FFF79F
:10537000DCB900002DE9FF4D054621F0004084B066
:105380000C46B0F1795F0BDA2846FFF746FD04289A
:1053900008BF00F071F8284608B02146BDE8F08D3E
:1053A0002A460B461046FFF767FA06460F462A467E
:1053B0002346FFF761FA804626488A4632463B4636
:1053C00005217844FFF780FF83461098029160B36F
:1053D000214A224B40465146FFF74EFACDE90001E3
:1053E0005A4640465146029BFFF746FA8246884697
:1053F000DDE906014FF0FF32FFF7C8FC5246434695
:10540000FFF734FA32463B46FFF736FADDE906236A
:10541000FFF72CFADDE90023FFF728FA08B02A4647
:105420002346BDE8F04DFFF724BA0B465A463046F6
:105430003946FFF721FA084A084BFFF776F942464A
:105440005346FFF719FA08B02A462346BDE8F04D47
:10545000FFF76BB9220E0000495555555555C5BF8C
:105460000122FFF793BCFFF760B9002213461046F4
:105470001146FFF773BA0000024A00201107FFF738
:1054800085BC000001FDFFFF02E008C8121F08C133
:10549000002AFAD170477047002001E001C1121FB5
:1054A000002AFBD1704700000149086070470000E6
:1054B0008C0000202DE9F84F04460D4621F00040F5
:1054C00000917349814211DC7249884201DC06D1A6
:1054D0002CB120462946BDE8F84FFFF7C1BF6E4802
:1054E000002DCCBF6D496E49BDE8F88F6D498142F2
:1054F00011DD6D498142D8BF4FF0FF366DDD20468A
:105500002946FFF78AFC042808BFFFF7B5FF2046AD
:105510002946BDE8F88F6549654F25F00045814271
:1055200033DD6449814219DD002632464FF0804365
:1055300020462946FFF7F9F880468A460122204690
:105540002946FFF723FC00223B46FFF78FF942462E
:105550005346FFF703FA04460D463EE001260022BB
:10556000BA463B4620462946FFF7DFF880460F46FD
:105570000022534620462946FFF778F942463B462B
:10558000FFF7ECF904460D4627E04B4981421BDD4D
:10559000DFF828A102260022534620462946FFF7BD
:1055A0006BF900223B46FFF7C0F880460F46002209
:1055B000534620462946FFF759F942463B46FFF736
:1055C000CDF904460D4608E0032622462B4600206E
:1055D0003B49FFF7C3F904460D4622462B461046C9
:1055E0001946FFF749F98B46824602460B46FFF7FC
:1055F00043F907460246334888460B46062178445D
:10560000FFF762FE52465B46FFF736F982462E48A8
:105610008B463A46434605217844FFF755FE3A4605
:105620004346FFF729F902460B46002E50465946DD
:105630000CDAFFF77AF822462B46FFF71DF901B086
:1056400022462B46BDE8F04FFFF713B9FFF76DF880
:1056500022462B46FFF710F91C4A7A4402EBC60398
:10566000D3E90023FFF702F922462B46FFF7FEF8A5
:10567000174A7A4402EBC603D3E90023FFF7F9F88F
:10568000009A002AB8BF81F00041BDE8F88F000001
:10569000000010440000F07F182D4454FB21F93F16
:1056A000FB21F9BF0000DC3F0000203E0000F33F7B
:1056B0000000F03F0000E63F008003400000F83F9C
:1056C0000000F0BFB60A0000740A0000120A0000D1
:1056D000DA0900002DE9F04D9446CCF1000423F0E6
:1056E00000464CEA0404524F46EAD4749A4688466F
:1056F00021F00042BC4206D8454240EA050442EA95
:10570000D474BC4204D9BDE8F04D6246FFF7ABBE8D
:10571000AAF14055A5F17F6555EA0C040BD002248F
:1057200004EAAA74434DDFF810E144EAD87452EA5F
:10573000000B04D00CE0BDE8F04DFFF7BBBE002C21
:1057400014BF012CBDE8F08D022C30D0032C32D0D8
:1057500056EA0C0B0AD0BE4220D1BA4209D126F03B
:10576000804622F080423346114617E000291ADBBA
:1057700025E0DFF8C8B0FB44002C04BFDBE90001E2
:10578000BDE8F08D012C02BFDBE9000181F0004192
:10579000BDE8F08D022C0AD0032C0CD0BA4212D1F5
:1057A000B8F1000F0BDA23482549BDE8F08D2846F3
:1057B0002449BDE8F08D28467146BDE8F08D1D48AE
:1057C0002149BDE8F08D921B12153C2AC4BF19482F
:1057D0001D490EDCBAF1000FBEBF12F13C0F0020D4
:1057E000014606DB6246FFF7B9F821F00041FFF7FA
:1057F00061FE002C08BFBDE8F08D012C04BF81F0D4
:105800000041BDE8F08D114A114B022C07D0FFF783
:105810002DF82A46BDE8F04D0A4BFFF727B8FFF7F1
:1058200025F82A46BDE8F04D064BFFF722B80000E8
:105830000000F07F182D4454FB2109C09E09000090
:10584000FB21F9BFFB210940FB21F93F075C143321
:1058500026A6A13C00B5244B21F0004287B09A4215
:10586000DCBF0022134629DD204B9A4208D140B903
:105870004FF00100FFF718FEFFF7F7FD07B000BD7E
:1058800003DBFFF7EDFD07B000BD02AAFFF7DAFA70
:1058900010F0030104BF0DF1080C9CE80F000DD0BF
:1058A000012001290ED0022914D00DF1080C00901E
:1058B0009CE80F00FFF75EFD07B000BDFFF786FC18
:1058C00007B000BD0DF1080C00909CE80F00FFF739
:1058D00051FD05E00DF1080C9CE80F00FFF776FC88
:1058E00007B081F0004100BDFB21E93F0000F07FDF
:1058F00000B5254B21F0004287B09A4203DC00221C
:10590000134600922BE0214B9A4208D140B94FF048
:105910000100FFF7C9FDFFF7A8FD07B000BD03DBDD
:10592000FFF79EFD07B000BD02AAFFF78BFA10F04B
:1059300003014FF001000DD0012914D002291AD023
:105940000DF1080C9CE80F00FFF740FC07B081F058
:10595000004100BD0DF1080C00909CE80F00FFF71E
:1059600009FD07B000BD0DF1080C9CE80F00FFF722
:105970002DFC07B000BD0DF1080C00909CE80F0055
:10598000FFF7F8FCE2E70000FB21E93F0000F07FB1
:105990002DE9F04106460F46FFF785F904000D4654
:1059A00018BF0120284320F00040C0F17F6000F1C3
:1059B000E040C00F0ED0301C18BF0120384320F04B
:1059C0000040C0F17F6000F1E040C00F04BF012043
:1059D000FFF76AFD20462946BDE8F081000000007F
:1059E000000000000000000000000404040404049F
:1059F0000004000000140A0A00000000000000007B
:105A0000000014143F140A3F0A0A000000041E1587
:105A100005060C14150F0400000012150D0A142CB5
:105A20002A1200000000040A0A1E1515093600009B
:105A30000002020100000000000000000020100829
:105A400008080808081020000002040808080808D0
:105A50000804020000000004150E0E1504000000EA
:105A600000000404041F04040400000000000000FF
:105A7000000000000002020100000000001F000002
:105A80000000000000000000000000000002000014
:105A900000100808080404020202010000000E11B0
:105AA00011111111110E0000000004060404040479
:105AB000040E000000000E1111080402011F000076
:105AC00000000E11100C1010110E00000000080C48
:105AD0000A0A091E0818000000001F01010F10101B
